:020000040001F9
:1080000090320020F58001000F81010011810100F4
:108010000000000000000000000000000000000060
:1080200000000000000000000000000013810100BB
:108030000000000000000000158101001781010010
:108040001981010019810100998A0100198101003B
:108050001981010000000000AD88010019810100B4
:1080600019810100198101001981010019810100A4
:108070001981010019810100198101001981010094
:1080800019810100F989010019810100198101009C
:10809000198A010019810100218A0100198101005A
:1080A000198101001981010000000000000000009A
:1080B00000000000000000000000000000000000C0
:1080C0000348854600F0ACFB0048004715AF0100AF
:1080D00090320020401E00BF00BF00BF00BF00BFA5
:1080E00000BF00BF00BF00BF00BF00BF00BFF1D195
:1080F000704700000321094802680A4302600848EB
:1081000002680A4302600748804707480047FEE7C5
:10811000FEE7FEE7FEE7FEE7FEE70000240500407D
:1081200054050040458A0100C180010030B50B466E
:10813000014600202022012409E00D46D5409D4241
:1081400005D31D469540491B2546954040191546C7
:10815000521E002DF1DC30BD03460B439B0703D0BC
:1081600009E008C9121F08C0042AFAD203E00B78FC
:10817000491C0370401C521EF9D27047D2B201E074
:108180000270401C491EFBD270470022F6E710B572
:1081900013460A4604461946FFF7F0FF204610BD75
:1081A000F8B502464A40D40F42004B0052085B0823
:1081B0009A4202D20246084611464A0023D0C30D15
:1081C0004A00DDB2120EAD1A202D35DA4902012621
:1081D000490AF6058A19002C00D0524220214F1B73
:1081E0001146B9402A411018C20D9A4221D0002CE4
:1081F00017D0012D08DCDA05801AD20F8019D207BA
:10820000DBB200F014F9F8BDDA05801A0123400052
:108210001B06C01880185A428018CA0F1043490024
:1082200007E04908C2071143DA05801A801940089F
:10823000801800F0F4F8F8BD61000122511A001B0B
:10824000F7E70122D2075140AAE70122D2075040A6
:10825000A6E70000F0B51FB488B00B990998002478
:1082600048400999C00F490049080991C0070B9976
:108270000090490049080B9109990898A6460843BF
:1082800003D00B990A98084303D1002001460DB092
:10829000F0BD099801244000420D4800410D0998A5
:1082A00024050003000B204309900B980003000BEA
:1082B00020430B9050181A49401800220190144690
:1082C000104601E0032801DA034600E003239C4640
:1082D000C11A0AAE0AE05F0008ADED5B4F00F75B24
:1082E0007D430027AA187C415B1E491C6145F2DDD5
:1082F000410004AB5A522104120C0A43240C401CC6
:108300000828DFDB019802900099704601910090E7
:10831000059B049A0799069800F0D0F8B7E700008B
:108320000DFCFFFF70B54B005B0803430BD04B0007
:108330005C0D002633466542B341D417AD1AA34104
:1083400002DB0020014670BD12053018514170BD9E
:1083500010B500229623114600F069F810BDC20F37
:10836000D207400040080BD0C10D0723DB01C9181C
:1083700040020905400A1143C208400711437047F3
:10838000002001467047CB0FDB07490010B54908B4
:1083900002460A4307D00A0D07240903E401090B2A
:1083A000121B002A01DC002010BDC900440F0C4341
:1083B000C100E018D205801800F031F810BDF0B50A
:1083C0001FB40646002082B005464024019100906B
:1083D0001BE0019922460F46304600F043FA049A0A
:1083E000059B801A994110D310461946224600F089
:1083F00029FA361A8F410197224601200021009F59
:1084000000F020FA38184D4100902046641E0028E4
:10841000DFDC019B00982946324607B0F0BD0029F9
:1084200004DA401C490001D140084000704770B494
:108430000024050C05D11024000402D1002922D00B
:108440001124050E01D108340002050F01D1241DAD
:108450000001850F01D1A41C8000002801DB641CF1
:108460004000002908D020252E1B0D46F540A140D4
:1084700000D00121294308431B1B0106DB1D000A14
:10848000002B02DA002070BC7047DB05181880183A
:108490000029F8DA401C4900F5D170BC40084000C2
:1084A000704710B5002B08DA0024401C6141921877
:1084B0005B411A4301D14008400010BDF0B51FB424
:1084C00082B005460C0003D0084600F075FB02E0C0
:1084D00000F072FB2030024600902146284600F052
:1084E000B1F9049B059A04460F461843114308430B
:1084F00003D12046394607B0F0BD1846104317D0C7
:10850000009840210A1A1846059900F0ABF9054673
:108510000E46009A0599049800F094F9084301D09A
:10852000012000E00020C11705430E432C433743D0
:1085300000990E986305401A7905E40A0A30002272
:108540000C43FD0A002802DA00200146D3E70105AA
:10855000101969410C9C0D9D00196941FFF7A1FF9D
:10856000C9E70000F0B507460846584087B0C00F7D
:10857000049048000E46590040084908BC1A88413A
:1085800005D2384631461E4617460B46024658006D
:108590004008104303D13846314607B0F0BD300DD6
:1085A000039040055900400D490D0590401A029076
:1085B00040286DDA18030121000B090508430190DA
:1085C00004980092002805D0019952420020884169
:1085D00000920190029840210A1A0199009800F037
:1085E00031F905460C46684607C800F04CF9C01939
:1085F0007141039A0E0D0023D71756401A467A4050
:10860000164340D0049A002A29D0029A012A039ADC
:1086100011DC1205C01A914101263605001C71417A
:10862000D20F059ED2070093019202962A46234656
:10863000FFF744FFB1E71605224A0F46B218C01AE9
:10864000B74101210905001C4F4100187F41114627
:1086500018187941E20F10436D19644113E0E207E5
:108660006D0815436408C2071443039A01261205D6
:10867000C01A91413605001C7141CE0740083043B5
:108680004908C01851412A462346FFF70AFF84E7EC
:10869000049801224000C117121A00238B4104984C
:1086A0003146C417381AA141EFE730B40124E4077A
:1086B000634030BC56E730B40124E407614030BC6D
:1086C00050E700000000E0FFF0B50C465C4085B0CC
:1086D000E40FE40703944C00002664085900944614
:1086E000490802460296224321D062460A431ED020
:1086F0006200570D4A000E032303550D0124024664
:108700002C492405781B1B0B360B401823432643AA
:10871000614600901C46501AB44103D30098401C97
:10872000009002E0921800985B41002803DA0020D4
:10873000014605B0F0BD0020012109050746864627
:1087400011E064461D46141BB54106D36546521B15
:10875000B341744607430C43A646CD074008490879
:10876000284392185B4105460D43EAD11046184351
:1087700013D06046194650407140084303D100228F
:108780000123DB0709E06046101AB34102D201223F
:10879000002302E00122D2435310009874460105E1
:1087A000381C6141029C039D00196941FFF779FE65
:1087B000BFE70000FD0300004A0009030123090B85
:1087C0001B0519430A4B10B5520D9A4202DA0020DC
:1087D000014610BD064B34339A4203DC9A1A00F06E
:1087E00041F810BD034BD21800F02CF810BD00006A
:1087F000FF030000CDFBFFFF10B5002904DB0124BF
:10880000E40740428C412146002B04DB1C46012337
:10881000DB075242A341994200D1904210BD0000B3
:10882000064C0125064E05E02046E36807C82B43A9
:1088300098471034B442F7D3FFF746FC6CC10100EF
:108840008CC1010010B5202A04DB0146203A91407A
:10885000002010BD914020239C1A0346E340194399
:10886000904010BD10B5202A04DB0846203AD040C5
:10887000002110BD0B46D340D0402024A21A9140C5
:108880000843194610BD10B5202A06DBCB17084651
:10889000203A1041C1170B4306E00B461341D0406C
:1088A0002024A21A91400843194610BDF8B50025AE
:1088B000FF24013401262F460095204602F032FFA6
:1088C000002808D034484068304204D033480021A2
:1088D000201835430160241D76007F1CA4B2042FAC
:1088E000EBD3FF207D3002F01DFF002807D02C487D
:1088F00000210160400705432A48006900902A4E84
:10890000280713D001270024384628420AD02748D8
:10891000A200111808690969C004C00E8903B25881
:10892000890F90477F00641C042CEDD3002D30DAB2
:1089300000241D4E0021301940304156491C25D0DD
:108940000778BD06AD0E284602F006F880003658BE
:10895000002E1BD0BF090121A940154AA80080188C
:108960000068009A8003800F114202D0022802D0D2
:108970000CE003280AD1032F05D102280AD00221D6
:10898000284602F0BFFE39462846B047641C042C36
:10899000CFD3F8BD0321F3E700630040006000403F
:1089A0007C61004000050050382500200065004033
:1089B000000700508307FF22DB0E9A408907090E4B
:1089C000994000280BDA0007000F08388308084890
:1089D0009B001B18D86990430843D86170478308EF
:1089E00004489B001B1818689043084318607047A0
:1089F00000ED00E000E400E010B50649002008604A
:108A000048608860C860034940390860486003F0E6
:108A100045F910BD4011014010B503F0D5F810BD67
:108A200010B507484068002807D08047002803D0C9
:108A30000022114600F014FF10BD02F0FBF810BD3B
:108A4000D020002010B502F043F9002805D00E49CF
:108A50000C484860C8130D4988610D48018CC9B2A3
:108A600001290ED1818C09070BD1018D0906090F4F
:108A7000042906D1808D0006000F02D1054901208E
:108A8000886010BDDFFF07C000050040006C00409B
:108A9000C00F00F000060040F0B53C4D012185B04C
:108AA0004902284602F059FE01270026384C0028CA
:108AB00023D0FF212531284602F044FE00281CD097
:108AC000FF21253128466E508122324992008A606A
:108AD000617D002900D14760022269460A7002F0D8
:108AE0002BFE0390E07C69460872E0680190E67412
:108AF00062686846216890471DE00421284602F01C
:108B00002CFE002817D0FF210931284602F01AFE5A
:108B1000002810D002F008FFE07C217D88420AD1B5
:108B2000607D002800D16F6081211A488900816032
:108B3000207D02F05DFFFF211D31284602F002FE7C
:108B400000280DD0A07C218A884202D903F0E8F8E1
:108B500006E0FF211D316E50002801D003F034F9EA
:108B6000FF214531284602F0EDFD00280CD0FF2002
:108B700045302E50607D002800D02F60E07C00281A
:108B800002D0207D02F034FF05B0F0BD002000408F
:108B900080250020002300400FB410B503A9044B2A
:108BA000044A029800F0E8F810BC08BC04B018476A
:108BB000D3AB0100CC2000202021020C01D01021D9
:108BC0001046020A01D008391046020901D0091FD7
:108BD0001046820801D0891E1046420801D0881E26
:108BE0007047081A704730B47446641E2578641CB8
:108BF000AB4200D21D46635D5B00E31830BC1847F2
:108C000002E008C8121F08C1002AFAD17047704755
:108C1000002001E001C1121F002AFBD170470000B3
:108C2000F0B51FB484B007980699020D01430FD127
:108C30000F98012449A3012807D004980F9A846053
:108C40000360C260416009B0F0BD0E98C143F4E713
:108C5000434844491018484305140F9801280E98BA
:108C60000BD0281A401C00243F4E4049009401912B
:108C70000290002803DA474216E04042F3E7074635
:108C800012E0F80707D02246334601990098FFF713
:108C9000E1FA019100902246334610461946FFF74B
:108CA000D9FA04460E467F10002FEAD10298019BA4
:108CB0000028009A0799069802DAFFF7CBFA01E03C
:108CC000FFF702FD04460E460022294BFFF794FDF4
:108CD00003D80020C043014607E00022254B204670
:108CE0003146FFF73FFCFFF767FD102409E0002C39
:108CF0000ADB0A220023FFF762FB059B30321A557C
:108D0000641E02460A43F2D1641C1122059B121B09
:108D10001C190F9B012B08D00123084302D10E9888
:108D200082420DDD00236D1C0EE0084303D10E9836
:108D3000151A6D1E0AE011200E9000200F908CE78E
:108D4000824201DA00236D1E002B86D004980F9911
:108D5000456004608260C16075E70000300000007B
:108D600001FCFFFF104D0000000024400000F03F18
:108D70000000F0430000E03FFFB597B00646002535
:108D80001FE2252879D10024F9492746761C04944E
:108D900032780120203A904002460A4202D0044331
:108DA000761CF5E730782A280ED00222307801466A
:108DB0003039092916D804990A2359433039401803
:108DC0001443761C0490F1E7189802C80491189097
:108DD000002904DA012040030443484204900220A1
:108DE0000443761C30782E2814D104200443761CCA
:108DF00030782A2809D11898761C80C8189009E084
:108E00000A214F43303FC719761C3078014630396C
:108E10000929F5D930786C2810D006DC4C281AD0F6
:108E200068280ED06A2817D104E0742813D07A2855
:108E300012D110E00120400504430CE00121090596
:108E400001E0032109050C437178814203D101201F
:108E5000761C00052418761C3078119066280BD0FB
:108E600013DC58287ED009DC00287CD04528F6D0B9
:108E70004628F4D047281AD1AAE118E0632836D052
:108E8000642871D0652812D1A2E170286DD008DC69
:108E90006728F1D069287CD06E280DD06F2806D1C4
:108EA000BDE073282FD0752872D078285AD01A9A2E
:108EB000199990476D1C83E16002400F022809D088
:108EC00003280DD00428189801680DD0001D0D60EE
:108ED000189075E11898EA1702C80D604A60F7E724
:108EE000189802C80D80F3E7001D0D70F0E7189880
:108EF0006A460178001D117218900020507202A875
:108F00000090012005E0189802C8189000200091F8
:108F1000C04361070DD5002101E00199491C019171
:108F2000B94212DA8142F8DB009A515C0029F4D18F
:108F30000BE0002101E00199491C01918142FADB1B
:108F4000019A0099895C0029F5D1019904981A9B2E
:108F5000471A21463846199A00F09AFA01994019A1
:108F600045180BE051E030E113E050E00098009923
:108F70000078491C00911A9A199990470198401E4F
:108F80000190401CF2D1214638461A9B199A14E1EF
:108F900039E00A200021009001916002410F02296E
:108FA00007D0189A01CA1892C217944603290AD00A
:108FB0000CE01898C01DC108C9004A68086808314B
:108FC0009446189107E000B2C2179446042902D1D2
:108FD00040B2C1178C4600226146944506DA0A4623
:108FE0000021404291418C462D2102E0210504D50B
:108FF0002B216A461173012103E0E10701D02021F2
:10900000F7E7029151E00A200AE0102008E0102062
:1090100000900021042004430191082703E0082068
:109020000021019100906002410F022907D0189A97
:1090300001CA18920022944603290AD00AE018981F
:10904000C01DC108C9004A680868083194461891D3
:1090500003E080B2042900D1C0B2002102912107AF
:1090600023D51199702928D0009A1021019B4A40DC
:109070001A4309D16146014306D030216A46117373
:109080001199517302210291009A0821019B4A40D3
:109090001A430AD16146014301D1610705D5302148
:1090A0006A46117301217F1E02911199582909D036
:1090B00030A10E910DA90D9112E040216A46117365
:1090C0000121E0E730A1F4E76146019B009AFFF738
:1090D00076F90E9B8C469B5C0D9A521E0D92137076
:1090E00061460143F0D10D9805A9081A203001907E
:1090F000600703D501200004844300E001270198A4
:10910000874201DD381A00E00020019900904118E3
:10911000029809180498401A0490E00306D42146E6
:109120001A9B199A049800F0B3F94519002706E034
:1091300003A81A9AC05D199990476D1C7F1C02986C
:109140008742F5DBE0030CD521461A9B199A049857
:1091500000F09EF9451904E01A9A302019999047B9
:109160006D1C0099481E00900029F5DC1FE00000EE
:1091700009280100303132333435363738396162ED
:1091800063646566000000003031323334353637B1
:109190003839414243444546000000000D980D997E
:1091A0000078491C0D911A9A199990476D1C0199E4
:1091B000481E01900029F1DC4CE100F059F94519F5
:1091C000761C3078002800D0DBE528461BB0F0BDC7
:1091D000600700D406271898C01DC108C900486858
:1091E0000A680831C30FDB071891190001D09CA150
:1091F00008E0210501D59BA104E0E10701D09AA177
:1092000000E09AA1430011985B08109165280CD0EA
:1092100006DC452809D046281DD0472841D141E029
:10922000662818D067283CD13CE00021112F01DBD3
:10923000112000E0781C0191009008A911A8FFF707
:10924000EFFC139905910021119A15927F1C129839
:109250000197009150E00120C00703900120019088
:1092600008A9009711A8FFF7DBFC139A149905923F
:109270000022119B009212981593059A01920029E1
:1092800001D0104602E0791C40180190381A01D52F
:10929000019804E04042401E0090781C0190C01BE1
:1092A000029043E0012F00DA01270021112F01DD98
:1092B000112000E038460191009008A911A8FFF79D
:1092C000AFFC13990591119A002112981592009103
:1092D000019721070CD40599B94201DB019900E0FF
:1092E0000191012904DD159A491E515C302906D0EF
:1092F000B84201DA011D05DA0121029115E0019958
:10930000491EEDE7002805DC0099411800910199FC
:10931000091A03E0019A411C914200DD0191009974
:10932000401A401C02900120C0070390200706D479
:1093300002990198814202DB0020C0430290002084
:109340006946C87707AF012103980337C9078842E8
:1093500024D0022011902B201290039800280CDAC0
:10936000404203902D20129007E00A210398FEF757
:10937000DDFE30317F1E039039701199481E119027
:109380000029F2DC03980028EFD1791E12980870AA
:109390003078202108404530BF1E387006A8C01B19
:1093A000C01D039010980078002800D0012001997A
:1093B00041180298C0170918039809180498401A10
:1093C000401E0490E00306D421461A9B199A049883
:1093D00000F05EF8451910980078002803D01A9A1A
:1093E000199990476D1CE00323D521461A9B199AC1
:1093F000049800F04DF845191BE00098002807DBA1
:1094000000990598884203DD1598405C199901E0A0
:10941000199930201A9A904700986D1C401C0090B2
:109420000298401E029004D11A9A2E201999904752
:109430006D1C0199481E01900029DEDC05E038789A
:109440001A9A7F1C199990476D1C0399481E039026
:109450000029F4DC21461A9B199A0498ADE6000015
:109460002D0000002B000000200000000000000084
:10947000F8B5044600251E461746880404D405E0C6
:1094800039462020B0476D1C641EF9D52846F8BD2A
:10949000FFB50446002581B01E46C80301D530271C
:1094A00000E02027880404D505E038460399B0473A
:1094B0006D1C641EF9D5284605B0F0BD30B50948CD
:1094C0000022426009480849416001210160084BBF
:1094D0001960084C2568002DFCD022608068596016
:1094E00080B230BD007300400A800000007500406B
:1094F0000070004000710040F7B584B00025168868
:1095000007461580406B1446002813D00378059851
:10951000032E51D30221017021881122491C89B2E6
:10952000218042542188491C89B2218043542088DB
:10953000401C2080386B00281DD0054620880599E6
:1095400002461232B24237D811220A542088102221
:10955000401C80B220800A542088401C20800F20AC
:109560002A5C2388401ECA54228840B2521C2280A2
:109570000028F5DA0025384620300290807B00284C
:1095800006D033462246059901F0C6FB050014D1EA
:109590000298407B002806D032462146059800F00C
:1095A00045FE050009D1B878002823D005988646E5
:1095B0002088001DB04202D90C2007B0F0BD6846DB
:1095C00079DF0028F9D12188032072465054208881
:1095D0001921401C80B22080115420887146401C03
:1095E00080B2208041186846008802F05BFC218828
:1095F00040182080F878002817D0218803230A46D5
:10960000FB56C91C0598B142D6D802218154218845
:109610000122491C89B2218042542188491C89B207
:10962000218043542088401C20807868002817D06F
:1096300021880023C3560A46C91C0598B142BBD8ED
:109640000221815421880A22491C89B22180425476
:109650002188491C89B2218043542088401C2080E5
:10966000388900280AD00094384601960622022143
:109670000830059B02F08BFC05009ED1388A00283B
:109680000AD0009438460196072203211030059B2A
:1096900002F07DFC050090D1388B00280AD00094A0
:1096A00038460196152214211830059B02F06FFCF4
:1096B000050082D1386A002806D033462246059933
:1096C00001F0A6F90500D8D1786A002806D0334603
:1096D0002246059901F02AFD0500CED10298007BB3
:1096E000002807D0334622463846059902F09EF9F5
:1096F0000500C2D13878002807D0334622463846C4
:10970000059901F047FD0500B7D1284655E710B58A
:1097100001220221002000F04BFF002801D0072881
:1097200012D107220221012000F042FF002801D0BF
:10973000072809D100210A22084600F039FF002835
:1097400001D0072800D1002010BD000030B5A7B01F
:10975000382101A8FEF719FD022168460171002495
:1097600084710621C17138210FA8FEF70EFD012575
:1097700010A885810C48149024211DA8FEF705FD32
:1097800020A80570402021902294084B1DAA0FA903
:10979000009401A800F018FA002803D00022114616
:1097A00000F05EF827B030BD0C200020A9B7010002
:1097B00004484268012109050B46934383600A402F
:1097C000C26070470005005070B50024064D06E0E9
:1097D0006968E000085C012101F05CFD641C2878E8
:1097E0008442F5D3002070BD94200020F8B51546C2
:1097F0000C460646052A01D20720F8BD01F01CFEE2
:10980000002803D101F0EEFD0028F6D11049002018
:109810004E600C70C8608D6008610E4D0DE0E00078
:1098200069688019009181786A46517000780A4A07
:10983000694601F07FFD0028DFD12046641EE4B2B6
:109840000028ECD1054A0021024800F03FF8F8BD9D
:109850009420002058C10100E1AB01000DAB0100D4
:10986000BFF34F8F03490248C860BFF34F8FFEE735
:109870000400FA0500ED00E010B58268C3689A1A8A
:1098800003D001F093F9002010BD052010BD002980
:1098900006D0002A02D0531E134203D0092070477D
:1098A0000E2070470160838000218160C1600846FE
:1098B000704710B58268C3689A1A83889A4203D8A1
:1098C00001F07EF9002010BD042010BD094B9B68FB
:1098D000002B07D0002A07D0002805D00068037CA1
:1098E000002B03D008207047072070474174426165
:1098F00000207047A8200020FFB59007002581B008
:1099000014460E46002832D11B4F002C31D001F0F6
:10991000E9FF04987861032038702246BC6018344F
:109920000020334618214B43C10089180D704D703B
:109930008E704C601C19401C0328F5DBFD607D70A7
:1099400001240E48BD702405046003211420FFF794
:1099500031F80B4804600B4C0198A06003211120E2
:10996000FFF728F860683861002005B0F0BD0720D7
:10997000FBE7BD60FBE70000A820002080E200E0DC
:1099800000E100E000150140FEB50D461B491746F9
:109990008968044600292AD0002C28D0052D01D240
:1099A0000720FEBD6069002821D0607C012820D0FE
:1099B000002602F0AFFAC0001049019089684018F3
:1099C000694602F0D1FA002815D0012101700C4936
:1099D000446049680830E2C0084901988968411824
:1099E00068460078487002F031F90020FEBD08207A
:1099F000FEBD2E46DDE70420FEBD0000A8200020AD
:109A000000150140F8B5134D0446A96800291CD083
:109A1000002C1AD06069002817D00026267402F0A6
:109A200079FAC700A8686946381802F09DFA00283C
:109A30000DD0022101704460A8683918684600788A
:109A4000487002F003F93046F8BD0820F8BD042044
:109A5000F8BD0000A820002000B50B4A87B007CA57
:109A600004AB07C309480090012001900848029008
:109A70000120800203900323064A694604A800F0EF
:109A80000BF807B000BD000060C10100C820002035
:109A900090260020E9BD010070B50446224888B038
:109AA0001E460D0042601CD0A888296882B21F485B
:109AB000FFF7EDFE002815D1A889A96882B21B48DE
:109AC0001030FFF7E4FE00280CD120221849684628
:109AD000FEF742FBA06806902079002804D00121FF
:109AE00003E0072008B070BD0021684601750677C5
:109AF0006079002800D00E2069464875E078029011
:109B0000A078039020780190607800900949684619
:109B100001F09AFC0028E5D101F050FD0248012136
:109B2000801C01F0F1FCDDE76820002018250020F2
:109B300018C1010001BE010010B50446064801210C
:109B40004470401C01F046FD112803D12146034812
:109B5000FFF7AFFE10BD0000682000202825002080
:109B6000F0B50C4693B01F216A46118007260027E6
:109B70009180002809D0C17849070DD502A9FFF7C7
:109B8000BBFC002809D102AD01E000251780002CA4
:109B90000ED0E078002802D0304613B0F0BD01AA04
:109BA0000AA92046FFF7A8FC0028F6D10AAA02E07D
:109BB00068460022878068468088C3B2684600886D
:109BC000C1B2284672DFE8E770B50D460499164623
:109BD000040040D0002E3ED0404800224271C360B5
:109BE0000161242231463E48FEF7B6FA00F014F92E
:109BF0003B493431084610380160203181603821FA
:109C00005C38FEF7C2FA3648217838380170A178FE
:109C10008170E178C1706178417062692169426147
:109C20000161E268A168C26081600146E369A269DE
:109C3000CB618A61616A002917D00146AC310346C5
:109C4000B83341628B60626A12880A80626A9288C5
:109C50008A80002206E00E2070BD666AB668B65C97
:109C60009E54521C8E889642F7D8A16A00291AD0B9
:109C70001B4BAC3319460C398B608162A26A928807
:109C80008A80A26A12880A80002204E0A66AB66866
:109C9000B65C9E54521C8E889642F7D82C210A5DE1
:109CA0000F4918390A73216A002908D00B49143169
:109CB0000162226A52884A80226A12880A80616898
:109CC000002904D00549891D41606168416004484C
:109CD00029463838FFF744FF70BD000034200020CB
:109CE0001024002010B50288204C102A19D0002121
:109CF000112A19D0192A16D18079002813D1607938
:109D000001281DD0022824D0032827D004280AD1F6
:109D1000217117A0FEF740FFE168002903D02079E8
:109D20000CE08088208110BD617080882189884284
:109D3000F9D1012008E021690029F4D0884710BD3D
:109D40001BA0FEF729FF022000F08EF80028F2D1B8
:109D500010BD23A0FEF720FF0320F5E703202071AC
:109D60002C48FEF719FF0420EEE700003420002005
:109D70005B4144565D3A2054696D6564206F75748B
:109D80002066726F6D20736C6F77206164766572E8
:109D9000746973696E672C2073746F7070696E6775
:109DA000206164766572746973696E672E0D0A00AE
:109DB0005B4144565D3A2054696D6564206F75744B
:109DC0002066726F6D2064697265637465642061DA
:109DD00064766572746973696E672E0D0A000000FF
:109DE0005B4144565D3A2054696D6564206F75741B
:109DF0002066726F6D206469726563746564207398
:109E00006C6F77206164766572746973696E672E12
:109E10000D0A0000BCC0010010B507210148FEF783
:109E2000B4F910BD4C20002010B50D480078012871
:109E300014D10C4C6078002810D16079002802D031
:109E400074DF00280BD101206070607900F00CF8FD
:109E5000002803D02169002900D08847002010BDC8
:109E60001024002034200020F0B57B4C87B06071B6
:109E7000002606A8069601F021FD0127082806D035
:109E800000286FD10698002802D02770E0E00696DF
:109E9000FFF7C2FF714D6878002802D06079012871
:109EA00005D0A87800280AD06079022807D1E16897
:109EB000002903D0E7700820884700E0E670607949
:109EC000012808D16878002809D06348193001F0CA
:109ED000C7FC002803D06079022802D00CE00220E1
:109EE0006071A878002805D05B48193001F0B8FCF3
:109EF000002801D103206071287B002804D16079FB
:109F0000032801D104206071287E002804D16079E3
:109F1000042801D166712671E16800290AD06079B0
:109F2000032801D0042805D12878002802D06078C1
:109F3000002818D0A67018216846FEF726F9684652
:109F40000670019606720396607901280FD00228E8
:109F500016D0424E243637465C3F03281FD00428D3
:109F60006AD142E075E0A77007208847E3E73A48E6
:109F700018300190684607704682068227715EE0BD
:109F800037A0FEF709FE3448183001906846077084
:109F900029894182A9880182022020714CE0A88A87
:109FA00069464882288A08822C48243002F05EF8EC
:109FB000002805D02878002802D06078002803D037
:109FC0000320207130A035E0022069460872042089
:109FD0000396F870214800213838FFF7C1FD0028AA
:109FE00037D10520207132A024E0A88B6946088271
:109FF000288C48821948243002F038F8002805D00F
:10A000002878002802D06078002803D0042020712E
:10A0100035A00FE002206946087204200396F8700C
:10A020000E4800213838FFF79BFD002811D106208B
:10A03000207137A0FEF7B0FD6079002803D0684694
:10A0400073DF002805D1E168002901D02079884715
:10A05000002007B0F0BD00003420002010240020B4
:10A060005B4144565D3A205374617274696E672097
:10A07000646972656374206164766572746973657E
:10A080006D656E742E0D0A005B4144565D3A205397
:10A0900074617274696E672066617374206164769E
:10A0A0006572746973656D656E742E0D0A0000002B
:10A0B0005B4144565D3A205374617274696E672047
:10A0C00066617374206164766572746973656D6529
:10A0D0006E7420776974682077686974656C697339
:10A0E000742E0D0A000000005B4144565D3A205377
:10A0F00074617274696E6720736C6F772061647627
:10A100006572746973656D656E742E0D0A000000CA
:10A110005B4144565D3A205374617274696E6720E6
:10A12000736C6F77206164766572746973656D65B1
:10A130006E7420776974682077686974656C6973D8
:10A14000742E0D0A0000000070B5054601461C2261
:10A150000E48FEF701F80E4C0026267029680029EB
:10A1600006D00822201DFDF7F7FF201D7ADF02E050
:10A170000748001D7BDF002807D1401E6080667005
:10A18000044A00210448FFF7A1FB70BDFC24002015
:10A1900054200020B1BE010004C10100F8B5214CDB
:10A1A000028800271E4DE689102A15D01E49112A63
:10A1B00021D0122A2DD0502A1CD1801D0288B242F3
:10A1C00018D1028B022A15D1C27E837E1002184359
:10A1D000C007C00F0CD112E0818869800146104889
:10A1E000082216310C30FDF7B7FF6F70002E01D139
:10A1F00000F058FCF8BD0020C04368806F7008680C
:10A20000FFF700FC0028F5D0A1690029F2D08847AB
:10A21000F8BD811D024808220C30FDF79DFFE7E7DD
:10A2200054200020FC24002004C101007CB5054618
:10A2300008880C460930904201D90C207CBD684644
:10A2400071DF0028FAD121880820685420881B215A
:10A25000401C80B220802954208800A9401C80B274
:10A260002080401906220131FDF776FF20886946DB
:10A27000801D80B220800978002900D00121295456
:10A280002088401C208000207CBD000010B50446C2
:10A29000FFF784FF2146064800F040F8204601F011
:10A2A00095FA2046FFF71EFD204600F0B7F810BDD6
:10A2B0003C23002030B5184B0D4604000FCB85B071
:10A2C00003936B4607C324D0002D22D00020C04347
:10A2D000A0822868A0610020A0752146684663DF3F
:10A2E000002814D121786846817401210182A21CC2
:10A2F00004A90120A0DF002809D12946204601F049
:10A3000029FB002803D12946204601F01FFD05B096
:10A3100030BD0E20FBE7000008C1010000281ED060
:10A3200000291CD00A88102A14D0112A14D0502ACF
:10A3300015D1891D0A88038A9A4202D10B8B022B00
:10A340000ED083889A420AD18369002B07D00A8BEA
:10A350001A311847898801E00021C943818270477A
:10A36000CA7E8B7E11021943C907C90F00D0012193
:10A370008175704707B584B000280DD0828A114BD3
:10A380009A420BD0827D002A08D06A46128B142A8A
:10A3900006D9072007B000BD0E20FBE70820F9E72B
:10A3A0000022009201920292039282896B461A80E7
:10A3B000039106A9029101219970808A6946A6DF5E
:10A3C000E8E70000FFFF00007CB5134E00250C46B7
:10A3D0003060002918D06946002000F0B5F8002848
:10A3E00019D101A9012000F0AFF8002813D1684667
:10A3F00001790020002901D0022004E06946097893
:10A40000002900D00B2020707068002802D1FFF7CF
:10A410007EF9054628467CBD2820002010B51C4C3E
:10A420000188606810290DD011290AD1401E606092
:10A4300007D1FFF76CF9002803D02168002900D06C
:10A44000884710BD00281ED100210122084600F0D7
:10A45000AFF8002801D0072811D1072202210120DE
:10A4600000F0A6F8002801D0072808D10422022114
:10A47000002000F09DF8002805D0072803D02168AF
:10A48000002900D088476068401C606010BD000053
:10A490002820002010B5032000F008FA002801D081
:10A4A000062800D1002010BDF8B507460024234837
:10A4B00002E0641C042C1AD2A2008258BA42F8D1DD
:10A4C000042C14D21D481E4E0C38002929D0012915
:10A4D0000ED002290BD16000201880194578002D7C
:10A4E00005D018480169002901D028468847F8BDE1
:10A4F00061006118755C8E19717800290CD01149C2
:10A500000A224968806851430E4A521CFFF73CFA00
:10A51000002801D10B4847700A48B1781430015522
:10A52000DDE78068FFF76EFA0648610061181430B5
:10A530008919005D8D78A842D1D0F8BD8CC001008A
:10A54000AC2300201020002004280CD2074A1269F6
:10A55000074B80001B5C01209840904300D00120F5
:10A560000870002070470020FAE700000005005046
:10A570008CC0010010B5042806D0072810D00A2886
:10A5800001D101F09AFA10BD08481321408876DF06
:10A5900008E00028F7D000221146FFF761F910BD4E
:10A5A000FFF742FC0828F4D110BD00000020002075
:10A5B00070B50023042811D2440004190D4D012A5E
:10A5C00002D101290DD0002246008019094E8019C0
:10A5D00000290CD0012906D0022906D007231846ED
:10A5E00070BD0D30C2B22A55F9E74270F7E78270AC
:10A5F000F5E70000AC23002010B5054A0146127AA9
:10A600000020D20702D0084600F054F810BD000028
:10A610001020002070B50E46204905464E608D6022
:10A6200000200A61A9071ED50024012211462046F8
:10A63000FFF7BEFF641C042C02D20028F5D012E004
:10A64000002810D1720804211548FFF7CFF8002820
:10A6500009D1FFF7B9F8002805D11148114A0021A6
:10A660001438FFF733F9E90706D00F220E49920498
:10A670008A600023CB608A6100280DD108480B4A0C
:10A6800000211C38FFF722F9002805D10448084AA8
:10A6900001211838FFF71AF970BD000010200020C2
:10A6A0009CC00100E9A80100000500506DAD01004B
:10A6B000B1970100FEB57A4D0722EB68D2049A43A8
:10A6C00002936B6800939C0006461B190020012131
:10A6D000019389040746734C3300FEF784FA180D82
:10A6E0001515374755677C887F8891DE9E9E9E9E14
:10A6F0009EC8CED1D8DEDE140F21029A8904914380
:10A70000A160E7602F70FEBDA260E76060680F2265
:10A7100092045040400309D5A160E760022E02D1A7
:10A72000E120C0000AE07D20400107E0E160A76071
:10A73000022E01D1C82001E0FF2091302E7064214B
:10A74000FDF7F4FC0099414300223FE0A260E7607E
:10A7500060680F2292045040400304D5A160E76076
:10A7600019204001EAE7E160A760E3E7A260E76043
:10A7700060680F2292045040400302D5A160E76058
:10A78000D1E7E160A760D7E7A260E76060680F22C9
:10A7900092045040400302D5A160E76001E0E1600F
:10A7A000A7602E700098410000220FE0A260E760D1
:10A7B00060680F2292045040400302D5A160E76018
:10A7C00001E0E160A7602E70009900223648006821
:10A7D000FFF7DAF8FEBDA260E7601BE061680120C8
:10A7E000C00402468A43A2600140E16010E0606854
:10A7F0000121C9040A468243A2600840E060E3E701
:10A8000060680121C9040A468243A2600840E060F2
:10A810000199C9E7E160A7602DE023484068FFF790
:10A82000F1F811218A1B01D0002807D00F22E96816
:10A8300092041140A160E760EF60FEBD01210905AF
:10A84000E960012A0CD91046C82148436421FDF76C
:10A850006DFC69680022414313484068FFF794F893
:10A860000F22E96892041140E160A760FEBD0F214C
:10A870008904A160E7602E70FEBD0722D204AAE71A
:10A880000D218904A160E7600121C904C2E7032109
:10A890000905A160E7608910BCE70F218904B9E7C9
:10A8A000102000200005005080C00100F0B50021FC
:10A8B0000B4C0C4D03273F048A00A25892005619F6
:10A8C000326801238B40034000D00323BA431B04AA
:10A8D00013433360491C0429EED30020F0BD00006F
:10A8E0008CC001000007005010B500780221FFF76E
:10A8F000DBFD10BD0022D243830004490428CA5066
:10A9000002D3081820300277704700003825002055
:10A91000F0B50025ED43002A02D00023042601E013
:10A92000042308260B4C04E09F00E7597F1C04D049
:10A930005B1CB342F8D32846F0BD26185DB2203622
:10A9400035709E00A151002AF5D1E1182031087719
:10A95000F1E7000038250020024909182020085698
:10A960007047000038250020F8B52348C168002949
:10A970003ED00E6821494C680769C078E11B0D0282
:10A980002D0AED1C002814D101201D4A000450603E
:10A990001B4A403A50601B49400008601A49086051
:10A9A0001A49012008602F20FDF794FB124901206D
:10A9B000C870B54200D23546E81900020F4B000AB4
:10A9C000403318600D4A5168001B091B0902090A2F
:10A9D0000002C91C000A814209D9506818602F2062
:10A9E000FDF778FB01200749400480390860F8BD75
:10A9F00000F078FFF8BD0000A820002000150140FD
:10AA00004013014080E200E000E100E0001001405E
:10AA1000F8B50646108814468446801D0D469842B7
:10AA200001D90C20F8BD32880720062AFAD319274D
:10AA3000FF01184BBA4201D99A42F3D17188062915
:10AA4000F0D3B94201D99942ECD19A4203D099424C
:10AA500001D08A42E6D80521604629542088122177
:10AA6000401C80B2208029542088401C80B2208065
:10AA70004119308801F016FA2188401880B22080F0
:10AA80004119708801F00EFA2188401820800020BA
:10AA9000F8BD0000FFFF000010B500221146FEF7D0
:10AAA000DFFE10BDF8B5164800F004F9144D00267D
:10AAB0000C3D144C002807D0616900291CD00120EE
:10AAC0006A461070684616E02878002805D061694B
:10AAD000002911D0684606700DE0687800280DD076
:10AAE000A168094800220068FEF74EFF002803D045
:10AAF000A169002900D088472E70F8BD6168F0E791
:10AB000060200020FC24002004C10100F8B50026CC
:10AB10000124154D24E06968F00047183878214673
:10AB200081402A690B46134218D08A432A6100F0FB
:10AB30004FFC3A782146EB68914019400346934018
:10AB400099420BD17978012901D0012100E000213F
:10AB50007B684140002B01D010469847761CF6B226
:10AB600028788642D7D3F8BD9420002010B50E492E
:10AB700000234A788C78A24212D0521CD2B24A707A
:10AB8000022A00D14B704A78074B920018339A582A
:10AB90000260086910180002000A0861012010BD57
:10ABA0000360002010BD0000A82000208268838878
:10ABB0001A4003689A5C0A708168491C816070477A
:10ABC000C26883881A4003689954C168491CC160EF
:10ABD000704710B50446C0B2FEF7AEFF204610BD68
:10ABE000F8B50746114E0125BD403068FEF70AFF53
:10ABF000002806D10E4C20690146294202D0A84304
:10AC00002061F8BD384600F0E3FB0028E06801D081
:10AC1000284300E0A843E060206900222843206127
:10AC2000A1683068FEF7B0FEF8BD000058C1010011
:10AC300094200020F8B51E4C2078002837D02069D9
:10AC4000002807D00026E068002805D00025002E47
:10AC500004D013E00126F6E70125F8E7684651DF46
:10AC6000052806D0002806D000221146FEF7F8FD80
:10AC700004E0012602E0216900988847002D12D1E6
:10AC8000608869460880A06861DF052806D0002832
:10AC900006D000221146FEF7E3FD04E0012502E0A4
:10ACA000E168A0688847002ED8D0002DCFD0F8BD2D
:10ACB000D0200020418805480288914204D3408872
:10ACC000814201D8012070470020704758200020A1
:10ACD0001048018CC9B2012917D1818C090714D100
:10ACE000018D09060A0F03D1828D1206120F0ED0B4
:10ACF000090F012903D1828D1206120F07D00329F3
:10AD000003D1808D0006000F01D000207047012084
:10AD100070470000C00F00F030B51588EC1C9C4255
:10AD200001D90C2030BD02244C5513881C255B1C16
:10AD30009BB21380CD5413885B1C9BB213800128F7
:10AD400007D0022807D0032807D0042807D00720FF
:10AD500030BD002004E0012002E0CC5401E00320DB
:10AD6000C8541088401C1080002030BD10B5044825
:10AD7000017AC90702D00078FFF79CFC10BD0000E3
:10AD800010200020F8B52C49C8680A690C780F79A2
:10AD900089688646944600913EE00099E200551885
:10ADA0002A7836E0182353436968521CC918AB78D7
:10ADB000D2B2934200D100220B78022B02D0032B97
:10ADC00027D123E04E680346014603E0B14204D098
:10ADD0000B46C96900291CD0F8E7002919D08B421D
:10ADE00008D1C069002805D1144F0126BE60002695
:10ADF000B44601270E68C969D961002909D00B68DA
:10AE00009B190B6005E00174C06900E00021002877
:10AE1000F9D169789142C5D12146641EE4B2002976
:10AE2000BBD1054962460A61C8600F71704501D007
:10AE30000120F8BD0020F8BDA8200020001001402E
:10AE4000F8B5044631480026C168009107784EE005
:10AE50002E48F90080680D1843E0002C02D02046EF
:10AE6000E4691FE02878182141436A68401CC0B299
:10AE700051182870AA78904200D12E700A7848683C
:10AE8000012A30D1027C002A2DD18A684260CA682A
:10AE900082600A69C260496981611C490979002997
:10AEA00000D04660194943680A699C46991A09020C
:10AEB000174B090A994202D28268891807E0614655
:10AEC000511A09028268090A8A4202D9511A01609C
:10AED00000E006604660012186600174C66100F0F2
:10AEE000BDFE002CB9D1287869788842BAD138469D
:10AEF0007F1EFFB20028ABD10448C1680098814290
:10AF000001D00120F8BD0020F8BD0000A8200020DD
:10AF1000FFFF7F0088B00021062000F0D7FB002152
:10AF2000032000F0D3FB0021042000F0CFFB00241D
:10AF300001220520009423461146019400F090FB65
:10AF400000236C4A05211846FEF7D6FC002803D0E2
:10AF500000221146FEF784FC674A01216748FEF78C
:10AF6000B5FCFEF779FD674E654A31460320FFF7D1
:10AF700051FB002803D000221146FEF771FC694600
:10AF80000020FFF721FA002803D000221146FEF727
:10AF900067FC6846007802287ED000206946087168
:10AFA0005449002348225C39082000F0B1FD0028F4
:10AFB00003D000221146FEF753FC0094684601942A
:10AFC000047060DF002803D000221146FEF748FC21
:10AFD0004D4800F093FD002803D000221146FEF7F3
:10AFE0003FFC112069460872042248A102A87CDFB8
:10AFF000002803D000221146FEF732FC00941025F1
:10B000006846019405803C214180FF218480913174
:10B01000C1807ADF002803D000221146FEF720FC11
:10B020003C48009069463C48FFF744F9002803D0AB
:10B0300000221146FEF714FCFEF788FB1C2168462F
:10B04000FDF7A3F80520C00301900F200004029033
:10B050000094032168460173C48104742F4805904D
:10B060002F4806906846FFF76FF8002803D00022AB
:10B070001146FEF7F5FB0320FEF7F6FE002803D08D
:10B0800000221146FEF7ECFB31461C4E00223068D0
:10B09000FEF77AFC202700E010E0224CA068002890
:10B0A00020D0C006FAD51C480830818A6846018045
:10B0B0000078012804D0022810D10AE001206DE7B1
:10B0C00001210022C9033068FEF75EFC1648876044
:10B0D00004E03068FEF796FC1348C760A068A843F8
:10B0E000A060DBE748DF0028D8D000221146FEF739
:10B0F000B7FBD3E76021002041BB01007CC0010009
:10B1000075A50100CD0C00008DA2010044454D4FF6
:10B110000000000079B701003C2300203DB8010089
:10B1200099AA0100002000200005005070B51446C7
:10B13000828805460E46921C2088911C411899422F
:10B1400001D8FE2A01D90C2070BD521C325420882F
:10B15000FF21401C80B2208031542088401C80B2E6
:10B1600020808119288800F09DFE2188401880B237
:10B170002080AA88002A09D0A968002908D080194F
:10B18000FCF7EAFF2088A98840182080002070BDC5
:10B19000072070BDF8B50F46017814460546012911
:10B1A00002D16878002806D02088821C9A422DD8C7
:10B1B000012902D006E00720F8BD69784118891CF2
:10B1C000994223D8181A801E86B2684606802188C4
:10B1D000B81C081869467DDF0028EDD128780228C0
:10B1E00005D169460988B14201D809210AE0082140
:10B1F000012805D16878B04202D86A46108001E083
:10B200006846068068460088FE2801D90C20F8BDF3
:10B210002288401CB8542088401C80B220803954B9
:10B2200020886946401C2080098840182080002022
:10B23000F8BD00008207D30EFF229A408907090E4D
:10B2400010B5994000280BDA03071B0F083B9C0838
:10B250000C4BA400E318DC6994430C43DC6107E069
:10B260008408094BA400E418236893430B4323602C
:10B27000C106C90E012088400449086004490860DD
:10B2800010BD000000ED00E000E400E080E200E01E
:10B2900000E100E0F3B581B00F46019800F0F6FA46
:10B2A000012400281E4E019817D0FFF755FB801986
:10B2B0002030007F8009032802D001280BD005E050
:10B2C0001848006901998C40204204D0032101985C
:10B2D00000F018FAFEBD0221F9E700F0E3FA0028B9
:10B2E000F8D00198FFF738FB05468100C81D0E4ACB
:10B2F000F93089180A6980B222430A610B49401863
:10B3000000210160002FE5D00198FFF725FB8000A8
:10B3100030580028DED00648AC404460FEBD000036
:10B320003825002000050050006500400060004006
:10B3300000630040FEB515460E460446002700F0A7
:10B340009BFA002801D0082738E0F27829462046E9
:10B35000FFF7DEFA0546401C2FD0B078002807D052
:10B360001748A1000918086802229043086007E006
:10B3700000217378204600910A46019100F082F97D
:10B38000F078002810D00F48AA0010183178026910
:10B390000D4B1A400261E206D20C8907890B0A4361
:10B3A00001690A43026109E00848327840192030F7
:10B3B000017F92011143017700E004273846FEBD6A
:10B3C0000007005000650040FFE0FCFF382500202A
:10B3D00003490969C140C807C00F00D00120704768
:10B3E0000005005070B5124D2879002801D00820C2
:10B3F00070BD0F4900204039421E0B182033401CFD
:10B40000C0B21A702028F8D300242046FFF772FA41
:10B41000641CE4B2082CF8D303210620FFF70AFFCE
:10B4200001200449C007486001202871002070BD38
:10B43000782500200063004002480079002800D0F1
:10B440000120704778250020F3B5284D0446A87DDB
:10B4500081B0002801D00820FEBD002C00D1244C72
:10B46000206800F045F920780126314681402148C6
:10B4700081600021606800F032F9204F1E4BA06906
:10B480007862607D217D08431C494031C8621846BE
:10B490006268216800F069F9207D012810D100213F
:10B4A000A06800F01CF9E06800F022F9207B31462A
:10B4B0008140104881601048A268E16800F047F9B7
:10B4C0000298686021692960002806D00D4A217F12
:10B4D0000B4850600220FFF7ADFE042038600020CA
:10B4E000E874A874AE756875FEBD00008025002064
:10B4F00038C1010000050050002000400025004038
:10B500008000020000230040F8B5294DEA7C002AA3
:10B5100001D01120F8BDE974E86000202875687D2D
:10B52000002801D100F074FA6868224C002805D088
:10B5300081202149800048600020F8BDFF2125318D
:10B54000204600F0FFF80546FF210931204600F0B3
:10B55000F9F80746FF214531204600F0F3F806468A
:10B56000394631432943E9D02846304306D100F01B
:10B57000DBF90F48C17C007D8142DFD8FF214531D6
:10B5800000206050FF21253160500949002DC8740A
:10B5900001D00320F8BD002E01D00F20F8BD497D59
:10B5A0000120002901D02060C6E76060C4E70000E8
:10B5B00080250020002000400023004010B5044CEE
:10B5C000607D002803D100F023FA0120607510BDD2
:10B5D00080250020F8B5204C0026A27C002A01D04E
:10B5E0001120F8BDA174A060002020821B4DFF2710
:10B5F0001D37E8510120A86000F092FB6168002926
:10B6000011D026E0FF2701372946144800F09AF8A8
:10B61000002802D1208AB842F6D1208AB84203D04D
:10B6200000F07EFB00E03D46A07C218A8842E9D8FC
:10B63000218AC81FF93801D10F2608E0074F294693
:10B64000384600F07FF80028F9D00120F86000208B
:10B65000A0743046F8BD0000802500200020004086
:10B6600030B552000A439900039C0A432102049D0D
:10B670000A4329040A43024980004018026030BD91
:10B680000007005030B552000A439900039C0A435A
:10B690002102049D0A4329040A43024980004018FC
:10B6A000026030BD0007005030B552000A439900D7
:10B6B000039C0A432102049D0A4329040A430249C8
:10B6C00080004018026030BD000700501CB5002209
:10B6D0000B46009211460192FFF7C2FF1CBD1CB53C
:10B6E00000220B46009211460192FFF7DDFF1CBDC0
:10B6F0001CB5002100910B46012201911146FFF774
:10B70000D3FF1CBD820006481018026803231B04E7
:10B710009A430260026809040A430260704700000D
:10B7200000070050034940180068012800D000209D
:10B7300070470000006000400921C90141180868F5
:10B74000086070474058002800D00120704705234A
:10B750001B02C01881600261704703221202801828
:10B760004068084000D00120704705231B02C01824
:10B77000C16042617047000070B5094C0E46A06878
:10B7800010210843A060154614210648FCF7FDFC73
:10B790002A4631460348FCF7DFFC257070BD0000E7
:10B7A000002000205823002010B500280BD00328CB
:10B7B00008D10220FEF720FF002803D00022114606
:10B7C000FEF74EF810BD00F078F910BD70B5018895
:10B7D000194C0546102912D011291BD0204640884B
:10B7E000132924D0522909D100231A461946A9DF6A
:10B7F000002803D000221146FEF732F870BD072062
:10B80000FEF7FAFE002803D000221146FEF728F8C2
:10B81000A8880AE00020FEF7EFFE002803D00022EF
:10B820001146FEF71DF80020C043608070BD002364
:10B830001A4685217FDFDBE70020002010B5007865
:10B84000002809D105483B21408876DF002803D035
:10B8500000221146FEF704F810BD00000020002071
:10B860000021425C002A01D001207047491C0629B2
:10B87000F7D30020704700000349081820214156E3
:10B88000C817401C704700003825002004490818DC
:10B8900020214156042901DB012070470020704718
:10B8A000382500200449081820214156042901D2D6
:10B8B000012070470020704738250020074909798A
:10B8C000490701D408207047002804D0044949786A
:10B8D0000160002070470E2070470000702000209B
:10B8E0009825002070B501240B49600408600B49BD
:10B8F00040108860094940398860094D6C602F20EC
:10B90000FCF7E8FBAC60074D00242F202C61FCF70E
:10B91000E1FBEC7070BD000080E100E040130140ED
:10B9200000100140A8200020FF2107480931002213
:10B930004250064881690648037DC268D154017DA2
:10B94000491C0175704700000020004000250040A0
:10B950008025002070B500240546601C90B00007CB
:10B96000000F08A9103008940870601C0007000F31
:10B97000103048708878F9263040801C88701C216F
:10B9800001A8FCF702FC69460879102108436946C2
:10B990000871029408A804940594079406902878E6
:10B9A00008A98871032069468884112000940870D2
:10B9B00048708878E7213040801C084001263043D9
:10B9C0006946887014210AA8FCF7DFFB09A80A90D1
:10B9D00068460B9069460E8614204C8688862B4656
:10B9E00068880C330AAA01A9A2DF10B070BD00005C
:10B9F0001FB5012269460A7008720448C1680191A6
:10BA00000021C17406C8684690471FBD80250020EC
:10BA1000FF220548253200218150FF220932815042
:10BA2000012101607047000000200040FFB507467B
:10BA3000806A81B0144600283DD000253846203069
:10BA4000009033E00C20B96A68430E18B088801C5F
:10BA5000FE2802D90C2005B0F0BD22880299401CB6
:10BA6000885420881622401C80B2208002990A54F3
:10BA70002088401C80B2208002994118308800F054
:10BA800011FA2188401880B22080B288002A0AD09A
:10BA9000B16800290FD0029BC018FCF75DFB20881D
:10BAA000B188401820806D1C0098EDB2007BA84240
:10BAB000C8D80020CFE70720CDE710B50020FEF75B
:10BAC0009BFD002803D000221146FDF7C9FEFEF7BA
:10BAD000E1FC002803D000221146FDF7C1FE3CDF47
:10BAE000002803D000221146FDF7BAFE10BD10B5A4
:10BAF00008461146C046C04610BD0000002803D0CD
:10BB00000249C860002070470E207047D0200020F6
:10BB100070B5002901D08C0701D0072070BD064CFC
:10BB20000125A16062800549636010DF0028F5D11E
:10BB3000257016202EDF70BDD0200020EFBA010046
:10BB4000F8B500252C46194F194EFDF7B7FCB88003
:10BB5000020A61007254891948700A21FCF7E6FA5A
:10BB6000FCF7F6FB2946FCF71BFB641C05460A2C78
:10BB7000EBDB0F4914228818FEF7FCFB2846FCF784
:10BB8000EEFB0C4A0C4BFCF765FB0922D243FCF799
:10BB9000C9FBFCF7F8FBFCF7E2FB02460B4607A0EB
:10BBA000FCF7FAFF07A0FCF7F7FFF8BD0020002024
:10BBB00028230020CDCCCCCCCCCC0C4025362E3547
:10BBC000660000000A000000FEB51F4C0025276932
:10BBD000E06802906846FEF7C9FF0190FFF7D2F8CF
:10BBE00006460198002822D000230098E16817E05B
:10BBF0000E680A46864202D9301A086012E0801B9D
:10BC0000F31800261660D668D169B446002E07D016
:10BC1000FE183602360A566066469660D5611546AD
:10BC20000029E5D12846E160FFF70AF906E0284639
:10BC3000FFF706F9002801D1002E02D00298FEF786
:10BC400093FE00202071FEBDA820002001200249A3
:10BC5000000508607047000000E200E010B50E4BE0
:10BC6000D968002906D002680C68A24204D8A21A3A
:10BC70000A60C161D86010BD0B4604E00B46C9697B
:10BC8000121B002904D00C689442F7D3A41A0C604C
:10BC90000260C161D86110BDA8200020F8B51E4D1A
:10BCA000EC68002C36D01D48002740682969401AEE
:10BCB0000602360A2068B0421AD8361AC719224638
:10BCC000107CE469002811D0002010746B69002BEF
:10BCD00009D0916950699847002807D00022114681
:10BCE000FDF7BEFD02E0516990698847002CE1D163
:10BCF0006978A878814206D1401CC0B2A870022899
:10BD000001D10020A87004490006800D18310F50A1
:10BD1000FFF79CFFF8BD0000A8200020001501409F
:10BD2000FF2107481D31002242500648028A8168DF
:10BD3000895C028A521C02820348C161704700007C
:10BD400000200040802500200025004070B58EB006
:10BD500005461C216846FCF718FA694608780C214C
:10BD600008436946087000240194039404940594E0
:10BD70000694287808A98870022069460884601C07
:10BD80000007000F10300794087711204877887F4C
:10BD9000F9210840801CE72108400126304369460C
:10BDA0008877142109A8FCF7F0F908A8099007A8DA
:10BDB0000A9069468E851420CC85088668882B1DDC
:10BDC00009AAA2DF0EB070BD1FB500216A4611702E
:10BDD0001072044882680192817406C868469047D0
:10BDE0001FBD00008025002010B50178022906D073
:10BDF000012904D1002240681146FDF731FD10BD34
:10BE00007CB50178254D01290AD002292FD00029BF
:10BE10002CD129462248FDF72FFD00282ED031E0F5
:10BE2000406801781E481038FDF743FD1C4C103C5B
:10BE3000002805D001216A4611700190684608E08B
:10BE4000A068E168081A012805D100206946087039
:10BE5000684669688847A068E168081AA18888422E
:10BE600004D80E480121801CFFF74EFB7CBD022147
:10BE70006A461170C068019068460CE001210748CD
:10BE8000FFF7A8FB06488168C068401AEED103207E
:10BE9000694608706846696888477CBD682000204C
:10BEA000282500200870000A487002207047000012
:10BEB00038B51549154A488890420FD04A78144C35
:10BEC000521CD2B24A70237B934208D3091D75DFFE
:10BED000002803D0A169002900D0884738BD00257B
:10BEE0004D70217C002907D03B2176DF002803D04C
:10BEF000A169002900D0884761690029EED0684611
:10BF00000570884738BD000054200020FFFF000066
:10BF1000FC24002012494868C005C00D19D0103813
:10BF200040B2002807DA0207120F083A920892007E
:10BF30005118C96904E081080A4A8900891809680A
:10BF40008007C00EC1408804000E012803D00328DA
:10BF500003D0022070470020704701207047000086
:10BF600000ED00E000E400E042788378521CD2B299
:10BF7000934200D100220378934201D10020704700
:10BF80000A70416840781822504308187047FFB57E
:10BF900083B016460C9D0D9C1F460222009501940D
:10BFA000039800F00CF8002807D13B4610223146D8
:10BFB00000950194039800F002F807B0F0BDFFB5BA
:10BFC00083B0074600200C9C8646268805463AE04A
:10BFD0007868A90042181188684681805188C1801C
:10BFE0000022694601A865DF002839D1684601783A
:10BFF0000598814226D17046002801D0002200E039
:10C0000002222088891842180D998A4227D8714641
:10C0100000290AD1401C80B22080069A049911544C
:10C020002088401C208001208646218806980A1816
:10C03000694601A865DF002812D169462088097881
:10C04000401820806D1C3888A842C1DC704600284A
:10C050000AD02088801B401E80B2FF2802D90C2005
:10C0600007B0F0BD069988550020F9E7017900294D
:10C0700002D1007B002800D001207047E42000207E
:10C080006C2300208C230020B82300201000000027
:10C09000110000001800000019000000100003004B
:10C0A000A9A4010011000300A9A4010018000300C5
:10C0B000A9A4010019000300A9A401005B41445692
:10C0C0005D3A2054696D6564206F75742066726FE7
:10C0D0006D2066617374206164766572746973693A
:10C0E0006E672C207374617274696E6720736C6F55
:10C0F00077206164766572746973696E672E0D0AC4
:10C1000000000000DC2400209ECADC240EE5A9E02B
:10C1100093F3A3B50000406E090000000B0000007F
:10C120000A000000080000000000000000000000FD
:10C1300000509D0003000000090000000B000000FB
:10C140000A000000080000000000000000000000DD
:10C1500000509D0003000000702600200300000036
:10C160000B09080A0000000000509D008CC101006E
:10C1700000200020E4000000008C010070C20100DB
:10C18000E4200020AC110000108C01000000FFFF33
:10C19000000000000000000001000200000000009C
:10C1A000000000000000000000000000000000008F
:10C1B0000000000000000000000000000024F40067
:10C1C0000000000000000000FFFF00000000000071
:10C1D000000000000000000000000000000000005F
:10C1E000000000000000000000000000000000004F
:10C1F000000000000000000000000000000000003F
:10C20000000000000000000000000000000000002E
:10C21000000000000000000000000000000000001E
:10C22000000000000000000000000000000000000E
:10C2300000000000000000000000000000000000FE
:10C2400000000000000000000000000000000000EE
:10C2500000000000000000000000000000000000DE
:10C2600000000000000000000000000000000000CE
:04000005000180C1B5
:00000001FF
