:1000000040630020492B0100EF6F0200352B0100F7
:10001000352B0100352B0100352B010000000000BD
:10002000000000000000000000000000B12C0100F2
:10003000352B010000000000512C0100352B010080
:10004000A92E010083980200A92E0100A92E01000B
:10005000A92E0100A92E0100A92E0100A92E010040
:1000600099980200A92E0100A92E01006D980200A6
:10007000A92E0100A92E0100A92E0100A92E010020
:10008000A92E0100A92E0100A92E0100A92E010010
:10009000A92E0100A92E0100A92E0100A92E010000
:1000A000A92E0100A92E0100A92E0100A92E0100F0
:1000B000A92E0100A92E0100A92E0100A92E0100E0
:1000C000A92E0100A92E0100A92E0100A92E0100D0
:0C00D000A92E0100A92E0100A92E01009C
:1000E00080EA101404F0F01480EA0410604081EA01
:1000F000111404F0F01481EA0411614082EA121430
:1001000004F0F01482EA0412624083EA131404F04B
:10011000F01483EA0413634080EA102404F47F445B
:1001200080EA0420604081EA112404F47F4481EADB
:100130000421614082EA122404F47F4482EA04220A
:10014000624083EA132404F47F4483EA0423634077
:1001500081EA500404F0553480EA4400614083EAA7
:10016000520404F0553482EA4402634082EA900467
:1001700004F0333480EA8400624083EA910404F09E
:10018000333481EA84016340704700BF82EA9004FF
:1001900004F0333480EA8400624083EA910404F07E
:1001A000333481EA8401634081EA500404F0553419
:1001B00080EA4400614083EA520404F0553482EA44
:1001C0004402634080EA102404F47F4480EA04205F
:1001D000604081EA112404F47F4481EA04216140F3
:1001E00082EA122404F47F4482EA0422624083EA11
:1001F000132404F47F4483EA0423634080EA101448
:1002000004F0F01480EA0410604081EA111404F054
:10021000F01481EA0411614082EA121404F0F0142F
:1002200082EA0412624083EA131404F0F01483EAB1
:1002300004136340704700BF2DE9F14F94464FEA25
:10024000930B8A68CB6808684968FFF749FF0BF190
:10025000060E33E083EA134480EA134582EA13472B
:1002600046BA96EA3444604000F00F1684EA063439
:1002700020F00F1684EA161054BA94EA0106724070
:1002800002F00F1486EA043622F00F1486EA1412E4
:100290004CBA6540694001F00F1485EA043521F03D
:1002A0000F1485EA14115CBA67407B4003F00F1409
:1002B00087EA043723F00F1487EA1413BCE8F00030
:1002C0006040694072407B4000F0E03400F010353F
:1002D00000F00F3040EA540040EAC50080EA900484
:1002E00004F0332480EA8400604001F0E03401F03F
:1002F000103501F00F3141EA540141EAC50181EAAC
:10030000910404F0332481EA8401614002F0E03476
:1003100002F0103502F00F3242EA540242EAC502FE
:1003200082EA920404F0332482EA8402624003F0F9
:10033000E03403F0103503F00F3343EA540343EA8B
:10034000C50383EA930404F0332483EA84036340FF
:1003500081EA324787EA134581EA354690EA060486
:1003600084EA034B82EA1B4280EA044484EA05449F
:1003700083EA144A85EA14448BEA044B84EA37443E
:1003800081EA0B4181EA164104EA0A00454082EA0B
:1003900004082BEA080041408AEA0B0602EA06003C
:1003A00084EA34438AEA3A4603EA0607784045403D
:1003B000414088EA38478BEA3B4007EA000985EA72
:1003C000090583EA0709464006EA0906714085EAFD
:1003D000010005EA3546464006EA314181EA3041EE
:1003E00081EA364606EA304686EA3546344008EA6F
:1003F000010886EA01052A4086EA364003405A4051
:1004000081EA31431F407C4080EA030709EA07097B
:1004100088EA0908544088EA020806EA0A0601EA5E
:100420000B018AEA0B0215408AEA3A421040454025
:100430008BEA3B4003405E404240174079404D40CC
:100440004E40E443F64386EA18435D4085EA0540A2
:1004500083EA134386EA034183EA384284EA11437C
:1004600083EA04435FEA3343BEF1010E3FF6F2AE86
:100470001ED4BCE8F0006040694072407B4020BC64
:10048000FFF784FE28606960AA60EB60BDE8F08F2A
:100490002DE9E0414FF2F00280EA1031114080EA8C
:1004A0000130484041088208C3084FF0000E4FE772
:1004B00000F0113001F0113102F0113203F011336C
:1004C00040EA410040EA820040EAC3004FF2F002F5
:1004D00080EA1031114080EA01304840BDE8E081F7
:1004E0002DE9F04F02F11C050646074600EB850892
:1004F00051F8040B043A46F8040BF9D14FF0010C03
:10050000FFF7C6FF5FEA302080EA0C001ECF4140B3
:100510004A4053405C401EC62000464517D04FEA73
:100520004C0C1CF4807F18BFACF1E50C2C2DE7D0EF
:100530003C2D06D1FFF7ACFF06CF41404A4006C62E
:10054000100006CF41404A4006C61000D8E736E901
:100550000F00FFF7C5FD043D86E80F00F7D1BDE8A9
:10056000F08F00BF2DE9F14F03F11C0402EB840C66
:100570004FEA930B8A68CB6808684968FFF7B0FDBB
:100580003CE9F0006040694072407B400BF1060E90
:100590004EE083EA134480EA134582EA134746BAE1
:1005A00096EA3444604000F00F1684EA063420F0E6
:1005B0000F1684EA161054BA94EA0106724002F04B
:1005C0000F1486EA043622F00F1486EA14124CBA8D
:1005D0006540694001F00F1485EA043521F00F14DD
:1005E00085EA14115CBA67407B4003F00F1487EA78
:1005F000043723F00F1487EA141344BA44404DBA69
:100600004D4056BA56405FBA5F4087EA174886EABF
:10061000174B84EA17464FEA38488BEA1B4485EAB1
:100620001B4788EA1B4580EA3440694072407B40A2
:1006300000F0703400F0803500F00F3040EA4400E4
:1006400040EAD50080EA900404F0332480EA840074
:10065000604001F0703401F0803501F00F3141EA63
:10066000440141EAD50181EA910404F0332481EA8E
:100670008401614002F0703402F0803502F00F32E4
:1006800042EA440242EAD50282EA920404F03324A8
:1006900082EA8402624003F0703403F0803503F094
:1006A0000F3343EA440343EAD50383EA930404F097
:1006B000332483EA84036340C943DB4381EA0004B3
:1006C00083EA044686EA020183EA014382EA33456B
:1006D00083EA14435C4084EA00077FEA040A8AEA5A
:1006E000024A8AEA010B87EA11488AEA374A80EA15
:1006F000060181EA1A418AEA030A04EA0A0045402F
:1007000088EA040707EA0B0041408AEA0B0608EA78
:10071000060084EA34428AEA3A4602EA060358406E
:100720004540414087EA37438BEA3B4003EA0009F2
:1007300085EA090582EA0309464006EA090671408E
:1007400085EA010005EA3546464006EA314181EA7C
:10075000304181EA364606EA304686EA354634407C
:100760000F4086EA010508EA050886EA364002409D
:1007700088EA020881EA314213405C4080EA0203C1
:1007800009EA030987EA0907674088EA040806EAD4
:100790000A0601EA0B018AEA0B0425408AEA3A4478
:1007A000204045408BEA3B4B02EA0B02564084EA6C
:1007B0000B04234059406E40694087EA364080EA86
:1007C000384080EA060380EA104481EA134585EA4E
:1007D000344585EA17427D4082EA354180EA05408A
:1007E0003CE9F0006040694072407B40BEF1010E80
:1007F0003FF6CFAE20BCFFF7C9FC28606960AA6055
:10080000EB60BDE8F08F00BFFFF76ABE2DE9F0078F
:1008100091E8F807B2E802105B1854EB0C04B2E858
:1008200002104D4156EB0C06B2E802104F4158EB56
:100830000C08B2E8021059EB01095AEB0C0A80E8E7
:10084000F80780410130BDE8F00770472DE9F00757
:1008500091E8F807B2E802105B1A74EB0C04B2E8F6
:1008600002108D4176EB0C06B2E802108F4178EB56
:100870000C08B2E8021079EB01097AEB0C0A80E867
:10088000F80780414042BDE8F00770472DE9F007C6
:10089000524290E87800B1E880071740DB1918EA67
:1008A000020854EB080419EA020955EB09051AEA93
:1008B000020A56EB0A0678C090E87800B1E8800793
:1008C00017407B4118EA020854EB080419EA0209B0
:1008D00055EB09051AEA020A56EB0A0678C0804170
:1008E0000130BDE8F00770472DE9F007524290E86B
:1008F0007800B1E880071740DB1B18EA020874EBA8
:10090000080419EA020975EB09051AEA020A76EBEE
:100910000A0678C090E87800B1E880071740BB412C
:1009200018EA020874EB080419EA020975EB0905D4
:100930001AEA020A76EB0A0678C080414042BDE816
:10094000F00770472DE9F00152424FF0040890E89B
:10095000300091E8C000A31B1340E41AF618EB1B0B
:100960001340ED1AFF1830C0C0C1B8F10108EED134
:10097000BDE8F001704700BF00B592E8DC072DE943
:10098000DC07B1E8805702B4A7FB02510A95A8FB27
:10099000020BE7FB6310E9FB62B00B91A8FB03516C
:1009A000EAFB6201E7FB64B5E7FB6605E8FB661559
:1009B000CDF830B0A9FB03B6EAFB6316ECFB635637
:1009C000E8FB640BE9FB641BEAFB645BECFB646B18
:1009D0000D90ACFB0230059CEEFB6250E9FB6460BD
:1009E000EAFB64B0E7FB6431E8FB6451069CE8FB7A
:1009F0006461E9FB64B1EAFB64010E93A7FB043276
:100A0000079CE7FB6462E8FB64B2E9FB6402EAFB73
:100A10006412049CE9FB6453EAFB6463089CE7FBF3
:100A200064B3E8FB6403E9FB6413EAFB64230F95FA
:100A30005DF8049B99E80006DDF80080A9FB0854E6
:100A4000EAFB68B4DDF81080ECFB6804EEFB681488
:100A5000E9FB6824EAFB6834DDF80480EEFB686596
:100A6000E9FB68B5EAFB6805DDF81480ECFB681566
:100A7000EEFB6825E9FB6835EAFB68450F96DDF873
:100A80000880AEFB0876E9FB6806EAFB6816DDF82D
:100A90001880ECFB6826EEFB6836E9FB6846EAFB4B
:100AA0006856DDF80C80ECFB68B7EEFB6807E9FBE5
:100AB0006817EAFB6827DDF81C80ECFB6837EEFB63
:100AC0006847E9FB6857EAFB686708B000BD00BFEC
:100AD0002DE9F14F87B0FFF74FFFDDF81C8008F1DB
:100AE000200888E8FF00FFBC87E87F08BDE8F08F9A
:100AF00000B591E89857A3FB03520195A3FB0401AD
:100B0000E3FB6420E3FB67100292A3FB0752E3FBC5
:100B10006802E4FB6415E3FB6805E3FB69250391C8
:100B2000A4FB07B6E3FB6926E3FB6A56E4FB670B0D
:100B3000E4FB682BE3FB6A5BE3FB6C6B0490A4FBB8
:100B40000810E4FB6950E3FB6C60E3FB6EB0E7FB6D
:100B50006721E4FB6951E4FB6A61E3FB6EB1E4FBEE
:100B60006E010592A7FB0832E4FB6A62E4FB6CB2FB
:100B7000E4FB6E02E7FB6E12E7FB6853E7FB696379
:100B8000E4FB6CB3E7FB6C03E7FB6E13E8FB6E233F
:100B90000695A7FB0954E7FB6AB4E7FB6C04E8FB86
:100BA0006C14E8FB6E24E9FB6E34E8FB6865E7FB38
:100BB0006AB5E8FB6A05E8FB6C15E9FB6C25E9FB07
:100BC0006E35EAFB6E450796A8FB0976E8FB6A06D8
:100BD000E9FB6A16E9FB6C26EAFB6C36EAFB6E461B
:100BE000ECFB6E56E8FB69B7E9FB6907E9FB6A179E
:100BF000EAFB6A27EAFB6C37ECFB6C47ECFB6E57B1
:100C0000EEFB6E6700BD00BF2DE9F14F87B0FFF727
:100C10006FFFDDF81C8008F1200888E8FF00FFBCAA
:100C200087E87F08BDE8F08F30B44FF0000310F87C
:100C3000014B11F8015B013A84EA050443EA04031D
:100C4000F5D1A3F101034FEAD37030BC704700BF68
:100C50004FF0000310F8012B013943EA0203F9D1E8
:100C6000A3F101034FEAD370704700BF30B411F80D
:100C7000014B12F8015B6C4000F8014B013BF6D1CF
:100C800030BC70472DE9F00791E8F807B2E8021090
:100C90005B1854EB0C04B2E802104D4156EB0C0605
:100CA000B2E802104F4158EB0C08B2E8021059EBC1
:100CB00001095AEB0C0A8941B3F1FF3374F1FF3497
:100CC00075F1FF3576F1000677F1000778F100083D
:100CD00079F101097AF1FF3A51F100015B184C41B9
:100CE0004D4156F1000657F1000758F1000859EB45
:100CF000D1795AEB010A80E8F807BDE8F0077047A0
:100D00002DE9F00791E8F807B2E802105B1A74EBDE
:100D10000C04B2E802108D4176EB0C06B2E802102A
:100D20008F4178EB0C08B2E8021079EB01097AEBFD
:100D30000C0A89415B184C414D4156F1000657F1B0
:100D4000000758F1000859EBD1795AEB010A80E805
:100D5000F807BDE8F007704718EB040859EB0509E0
:100D60005AEB060A5BEB070B5FF0000C4CF1000C32
:100D700018EB050859EB06095AEB070A5BEB070B62
:100D800050EB0C005FF0000C51EB0C0152EB0C022D
:100D900063414CF1000CB8EB070879F100097AF1D6
:100DA000000A7BEB040BA841B141A241B3416CF1B5
:100DB000000CBBEB050BB041B941AA41BB416CF142
:100DC000000C4CF001068CF0020718EB060859EBFA
:100DD0006C095AEB6C0A7BEB6C0B70EB6C0471EBDF
:100DE0006C0572EB670653EB6C076CEB6C0C18EB45
:100DF0000C0059EB0C015AEB0C025BF1000354F1AF
:100E0000000455F1000556EBDC7657EB0C077047F4
:100E10002DE9F14F87B0FFF7AFFDDDF81080DDF869
:100E20001490DDF818A0FFF797FFBDE8000FFFF75B
:100E300093FF03B05DF8048B88E8FF00BDE8F08FF6
:100E40002DE9F14F87B0FFF753FEDDF81080DDF894
:100E50001490DDF818A0FFF77FFFBDE8000FFFF743
:100E60007BFF03B05DF8048B88E8FF00BDE8F08FDE
:100E7000054B1B780022013382600260034A426006
:100E8000C371FF2303727047C8090020F8000800EF
:100E9000064B074A9B7802604FF40A728280C37146
:100EA0000822002382710372704700BFC809002026
:100EB00031F00000F8B5C71D002827F007070546E8
:100EC00014BF3846002000F0E5FA041E02DA6FF085
:100ED0000B00F8BD2E4EF188B088737A327A033158
:100EE000033089B280B20BF0AFFC0028EFDBB178A1
:100EF000F37827440337002D194427F0030700FB3C
:100F000001F114BF3846002000F048FC07440DB939
:100F1000002FDCDB01203C4600F0B2FA90B1F17A00
:100F200081B10737002D27F0070414BF20460020A9
:100F30002523282204F022FE0028C8DB04440DB932
:100F4000002CC4DBB37AABB1012000F099FA88B170
:100F5000F37A7BB10734002D24F0070414BF204638
:100F60000020B17A03F078FC0028B0DB04440DB90E
:100F7000002CACDBF3683BB115B1F4600020A8E7AE
:100F80002834A4D42046A4E7002DF7D1FAE700BF07
:100F9000C80900201FB572B6194B1D69EDB9BFF322
:100FA0004F8F1849184BCA6802F4E0621343CB60B4
:100FB000BFF34F8F00BFFDE72346B2FBF6F25C1C88
:100FC000002AF9D104AEDCB256FA83F303F80C2CF4
:100FD0000A2234B901A8A847E1E7024600230A26FD
:100FE000EDE7631E04AEDCB256FA83F3B0FBF2F613
:100FF00002FB1600303003F80C0C3046E9E700BF66
:10100000C809002000ED00E00400FA0507B50A4B0E
:101010001A89ADF800206846DA889B88ADF804206C
:10102000ADF8023001F0D4FF18B1FC219C20FFF78D
:10103000B1FF03B05DF804FBC809002038B50546D0
:1010400038B30AF0E3FB10B94FF0FF3038BD0AF0B7
:1010500085F9B0F5FA7FF7D80F4C1048256100F0FC
:1010600089F9002323752370E360012363801B2328
:10107000A380E38040F2032323814FF44273638112
:10108000EFF3108472B600F0FBFB04B962B60020E7
:10109000DCE76FF01500D9E7C80900200D1000004B
:1010A00038B51446002847D1254D2B7D032B40D061
:1010B00071B112B96FF0150038BD013906293BD85E
:1010C000DFE801F0043A133A293A32001378AB70A2
:1010D0000020FFF7EFFE0028B7BF012302232B7586
:1010E0006FF00B00A8BF2B75E6E71379002BE1D05A
:1010F0005379002BDED01288FB2ADBD863881B3B98
:101100009BB2E02BD6D81A2AD4D923686B600D4B3A
:10111000A2889A80DCE7012000F0B2F9237808B1B8
:10112000012BC7D9EB72D3E71388FF2BC2D8AB7260
:10113000CEE74FF0FF30BFE76FF02C00BCE700BFF9
:10114000C8090020CC090020F8B50D46064620B39A
:1011500019B311F0070420D1114F3B7D012B02D1AF
:101160006FF00B00F8BD032B02D14FF0FF30F9E711
:1011700000F05AF80028F8D02846FFF79BFE002818
:10118000EEDB0DF0B2FF3046F96801F0C3FFFFF768
:101190003DFF03233B752046E4E76FF01500E1E7D0
:1011A000C809002010B5064C237D032B03D101F0A4
:1011B000CDFF02F08BFE0BF09CFB0020207510BDD4
:1011C000C809002050B1074B03F1140253F8041B67
:1011D00040F8041B9342F9D1002070476FF01500CE
:1011E000704700BF2A13030008B501F075FF0549D9
:1011F000012000F03DF9BDE808400349002000F05F
:1012000037B900BF710E0000910E0000024B02685A
:101210001A600020704700BFE0090020014B1B68E6
:10122000184700BFE0090020024B1868003818BFBB
:1012300001207047E00900202DE9F843184E0446CC
:1012400000F104081648C6F8008002F057FE022894
:10125000054606D1124920460AF048FE2846BDE858
:10126000F8830428FAD1314620460AF06EFEB0F524
:10127000817F03D372210820FFF78CFE0028E1D084
:10128000277894F80290384600F020F80028D9D04A
:101290003E2FE3D1484600F059F80028DED1D1E7CF
:1012A000E4090020074B4FF0FF3141F6FF72C3E91C
:1012B000001205490022C1E900221F21C3E90212E0
:1012C000704700BF00000020E80A00203F280CD82B
:1012D00001380B4BC0F3421200F01F0053F82230CC
:1012E00023FA00F000F001007047FF2806D04038D4
:1012F000C0F34212034B00F01F00EFE701207047DC
:1013000000000020E80A00200146074B00684968F9
:101310001A4603C240F48C221A6041F0107242F463
:10132000FF625A60704700BF000000200246024B77
:101330000068516803C37047E80A00200246024B68
:101340000068516803C3704708000020F42800F1CA
:10135000FF33DBB21FBF064A590902EB810203F0DB
:101360001F031DBF9068D84000F0010000207047A7
:1013700000000020014B1860704700BFF00A0020F9
:1013800010B5FFF78FFF0BF0C1FC034B1B68044641
:1013900003B19847204610BDF00A0020F0B50C8834
:1013A000C37C0288A5B2C4F30E0404F1180602330C
:1013B000865B1A44334497B213FA82F3013B4288A6
:1013C000B3FBF7F313FB07439BB29A42044A93BF64
:1013D00022EA05032A4013439BB20B80F0BD00BFF5
:1013E0000080FFFF4A1E062A08B50346084604D8B7
:1013F0004FF4D1711520FFF7CDFD094A914202D972
:1014000040F2A311F6E711B903B1196008BD2BB181
:101410001B680022C3E901211A1D1A600430F5E798
:10142000FAFFFF7F10B5114B00EB41041A78638976
:10143000B3FBF2F303FB0223013A1A44B2F5706FD7
:101440000279807828BF00231A440B18B2FBF0F110
:1014500000FB11215B1AB3FBF0F100FB11331344C5
:101460006FEA43436FEA5343638110BDF40A0020DF
:10147000024B03EB80035960704700BFF40A002061
:10148000034B03EB80035868003818BF01207047F6
:10149000F40A00202DE9F04F10F0070A85B0054648
:1014A00004D040F261111720FFF774FD524F07F18D
:1014B0000C06B1460446B04657F8043B8DF80BA025
:1014C0003BB101A898479DF80A30082B01D9E821C3
:1014D000E9E79DF80B1041BB05B131604F4506F1BE
:1014E0000406E9D1002D6FD0DFF81091002289F8B1
:1014F00000209646022758F827A0013FBAF1000FB6
:1015000055D09AF804609AF802C0FF2E60D0394690
:101510000023481C38D19C44BCF1FF0F3FD90AB1CD
:1015200089F800E040F22711BDE79DF80AC0604647
:10153000022838BF02204B1D5A0004EB4303441E0F
:101540002344BDF808406444013CCCF1000C04EA9B
:101550000C044042B4F5803F03EA000301D3F821B4
:10156000A1E775B19A1A0120326091701480D07091
:101570009DF80C001071019810814FEA104CA2F8F0
:1015800006C004FB0134A9E758F8210028B190F8FF
:1015900004B0B34504BF80781B180139B9E7DBB24A
:1015A000E6458AF804303CBF5FFA8CFE01227B1CC2
:1015B000A1D10AB189F800E0022640F6FF6A58F886
:1015C0002670B7B9013EFAD2601B05B0BDE8F08FB6
:1015D0000023E5E707EB41033846A3F80AA0FFF72D
:1015E00021FF09F10109BB785FFA89F18B42F1D83B
:1015F000E8E74FF00009F6E7F80A0020F40A0020B7
:1016000038B54FF6FF730380184B03EB8103024696
:101610001869A8B184780379B3FBF4F104FB1133A2
:10162000DBB2194600EB4105B5F90A50002D0EDB7F
:101630000131B1FBF4F504FB1511C9B28B42F1D1B4
:10164000002038BD6381BDE838400BF0D9B800EB0D
:1016500041046389C3F30E031380C278002AF1D1D9
:101660004FF4D5711720FFF795FC00BFF40A002056
:101670001C4B03EB810370B51C69054644B303049E
:1016800004D54FF4DC711720FFF784FC0146204697
:101690000BF098F8FF28014604D02046BDE87040C2
:1016A0000BF0AEB8A078B5FBF0F300FB1353DBB240
:1016B00019460A1D04EB4206B6F90260002E09DB4A
:1016C0000131B1FBF0F200FB1211C9B28B42F0D133
:1016D000002070BD8B4201D00023E37004EB420276
:1016E0005580DAE7F40A0020094B03EB810310B5BB
:1016F0001C69014620460BF065F8FF28014604D01E
:101700002046BDE810400BF07BB8002010BD00BFA4
:10171000F40A0020F8B5104B03EB810307461C695F
:10172000014620460BF04EF8FF28054611D0E2880E
:10173000238953EA024606D0014620460BF060F8A2
:1017400001463846B04720462946FFF76BFE002089
:10175000F8BD0520FCE700BFF40A002038B50E4BA9
:10176000827903EB82030446186908B9052038BD65
:101770008278E1799142F9D24B1CE37100EB41038D
:101780005D89B3F90A30002BF3DBA5800BF038F844
:1017900020600020EBE700BFF40A002070B504468B
:1017A00010F003000E4603D04E211820FFF7F2FB85
:1017B000FFF718FE054624B1034831460460FFF7E1
:1017C00011FE284670BD00BF100B00202DE9F14F1F
:1017D000DFF870B09DF828A09DF82C901E46DBF82D
:1017E000003007460D4690461BB960211820FFF7D0
:1017F000D1FB5246092140460AF061FE4A4684B2B6
:10180000092130460AF05BFE14FA80F1DBF8000093
:101810000AF0ACFF386018B9286001B0BDE8F08F5D
:1018200004442C6038685346414609220AF00AFEF7
:1018300028684B460922314601B0BDE8F04F0AF056
:1018400001BE00BF100B002070B50E4604460AF022
:1018500049FE054630460AF045FE044B2A1821464B
:101860001868BDE870400AF0A6BF00BF100B00204A
:10187000024B186808B10AF06DBF7047100B0020CA
:10188000134B012200214FF0FF309A60C3F8001281
:10189000C3F80803C3F80015C3F804259A60C3F819
:1018A0000803C3F80015C3F804250A490A4A03F5DA
:1018B00080334FF40040C3F80825C1F88000BFF31F
:1018C0004F8FBFF36F8FC1F88001C3F808257047B1
:1018D00000F0004000E100E00000F63F0A461E2351
:1018E00002F8033B0448C368C1F80330036953603E
:1018F00043699360704700BF140B0020024B5A8C61
:1019000002435A845B6A1847140B0020014B0021E4
:101910005B6A1847140B002010B5154C06F058FAF6
:1019200005F0AEFD208DFFF7F1FF237E63B1224667
:10193000104952F80C3BE3606368536004F11900EE
:10194000A36893600CF042F90B4B228D93E80300DF
:1019500002F0B2FF236B188802F034FFA36B94F8F7
:10196000341094F835009847002384F83C3010BDBB
:10197000140B0020DD180000400B0020034B93F8EF
:101980003C300BB1FFF7C8BF704700BF140B0020FD
:1019900008B5094B93F83C20022A04D040F24F21AD
:1019A0002720FFF7F7FADA7A42F00102DA72BDE88F
:1019B0000840FFF7B1BF00BF140B0020032810B58B
:1019C0000A4B044605D11A6CD278022A01D10020B4
:1019D00010BD586C0AF008FE0028F9D1032CF6D08F
:1019E00001F0AEFC80F00100C0B2F1E7140B002062
:1019F00073B55D4C256B002395F868108DF80530A4
:101A000058B995F88C2094F8483003EB8203FF2BEB
:101A100003D195F869308B4202D0FF2006F072F8AE
:101A200095F88230032B00F29680DFE803F0022D58
:101A3000798C94F84930ADF806304C48A5F8583008
:101A400001F058FC28B1012385F87D3084F84A3034
:101A50001CE0606C0DF105020DF106010AF069FD54
:101A6000206488B195F8C73073B99DF805302BB95B
:101A700003808370206C01210CF051F8236CBDF8B9
:101A800006205A700123E1E7394B2364266C95F850
:101A900083203078D20002F0080200F0F3031343F1
:101AA00095F88420920002F004021343337000F092
:101AB0000300FFF783FF337823F0100343EA00139A
:101AC000337095F88B30206C002B47D04378002B77
:101AD00044D0206D06F01CFA012384F86C30D5F850
:101AE000E0306366216CD5F8E430206DA36605F024
:101AF00069FC95F86910012006F092FA0125206C26
:101B000084F875500CF01BF8236C84F876001B7871
:101B100084F83C5003F0030384F8773002B070BDC2
:101B2000B5F85830606CADF806300DF105020DF1D6
:101B300006010AF0FEFC20640028A3D140F2F12146
:101B40002720FFF727FA094801F0D4FB002899D194
:101B500040F2FB21F4E740F20931F1E706F0D8F951
:101B600005F08EFCC5E700BF140B0020540B0020CD
:101B70005F0B002010B5094CA36F23B940F2F6416A
:101B80002720FFF707FAB4F87C20D4F8801003323E
:101B900018460AF0BDF8C4F8800010BD140B0020F0
:101BA0002DE9F0434E4C94F83C30012B85B00646AD
:101BB0008846DFB204D040F204512720FFF7EAF94B
:101BC000256B216C02A80AF096FE95F87C309DF8F2
:101BD00008902BB1002185F87C100420FFF78EFEC1
:101BE000B9F1030F66D0BDF80C30002B18BF0227E7
:101BF00095F88C3085F88270B3B1236BD5F8E82066
:101C000093F8690062660027D5F8EC20A26684F894
:101C10006C700AF08DFE94F84890324900970346A4
:101C20004A46012005F084FB002E4CD1B8F1000F8C
:101C300049D0D4F8843030469847002843D094F8EF
:101C40003430002B3FD1256BD4F8883094F848000D
:101C5000C4F8803095F88C3095F8691000EB83005B
:101C6000FF2803D195F868308B4201D005F04AFF78
:101C700095F88C3063B3206D06F04AF9002384F8A0
:101C80006C30D5F8E8306366216DD5F8EC30D4F8C7
:101C90008000A36605F0D0FB002006F06DF995F8F2
:101CA0006810002006F0BCF9022384F83C3005B02F
:101CB000BDE8F08395F882301BB9216C0220FFF754
:101CC0001DFE032794E705B0BDE8F043FFF724BEEF
:101CD000D4F8800006F01CF905F0D2FBDCE700BF69
:101CE000140B0020680B002010B5064B93F83C2025
:101CF00002F0FF0422B91C7602F0D6FD204610BD8A
:101D00000C24FBE7140B00200B4B0C4A70B5064665
:101D10000D461A60FFF7E8FF18B1F4212720FFF7FE
:101D200039F9074C012104F14B000BF0F8FEC4F81F
:101D30008860256570BD00BF4C0000208C2300002A
:101D4000140B0020024B012283F88C20704700BF47
:101D5000140B0020F0B56E4C85B002AD85E8030091
:101D600094F83C100A9F01F0FF0611B90AB103B1C3
:101D700027B940F283112720FFF70CF995E80300FB
:101D800004F12C0C8CE80300256B6262C4F88430EB
:101D9000A76384F88C6084F8346084F88D6084F8DC
:101DA000356084F8756084F84A606684268505F09D
:101DB000DBFE05F065FB95F9700005F05FFF6F6ACB
:101DC000E86905F061FF384606F094F895F89C0044
:101DD00005F064FF0CF04EFB95F868204D4B33F88E
:101DE00012304FF47A7103F5FA73B3FBF1F3573302
:101DF0001918304605F0D8FF474B186806F080F8F0
:101E00002B6963646B69C4F8903004F1540205F1E6
:101E1000F00305F5807153F8040B42F8040B8B4274
:101E2000F9D1D5F80021C4F86D205A683B4B5A60AF
:101E3000236B93F8862093F86860253A012A03D92A
:101E400093F88720252A5ED193F8E2312BB1012E39
:101E500003D0012B0CBF0126022605F130073146C5
:101E600038460BF043FF31460BF0FAFCAB8F95F888
:101E70006910834228BF0346384684F849300BF086
:101E80001EFF95F8691095F88C70B5F84460042928
:101E900008BF03210BF0E4FC0FB9043080B2864286
:101EA00028BF0646F3B284F8943084F8483095F899
:101EB0008B309BB1012384F86C30D5F8E03095F875
:101EC00068006366D5F8E430A3660AF031FD034686
:101ED000002013490090FB2205F02AFA0120FFF7A9
:101EE00087FD002323606360A360B5F880306380C2
:101EF0002B88238095F89C302371EB6E0BB1012267
:101F00001A6005B0F0BD032E08BF0426A5E700BF88
:101F1000140B002000B502004C000020810B0020B3
:101F2000680B002008B5094B93F83C201AB9BDE8AE
:101F30000840FFF7F1BC93F83C30012B04D040F28D
:101F40002D212720FFF726F808BD00BF140B002025
:101F5000014B1876704700BF140B00202DE9F043A9
:101F6000324D85B004460F4602A8D5F880102E6B7E
:101F70000AF0C1FC14F00109BDF80C8004F0020461
:101F800028D0002385F8953094B1FFF7F3FD0DF1CB
:101F9000020201A9D5F890000AF0D2FB01980AF0DC
:101FA000B5FB012238604146D5F890000AF05DFB90
:101FB000B9F1000F0BD0D6E93A32013342F10002F9
:101FC000C6E93A3296F88430013386F8843005B099
:101FD000BDE8F08395F89530032B21D801A252F883
:101FE00023F000BF891F0000F51F00000F20000034
:101FF0000F200000002CEAD0FFF7BCFDD5F89000C0
:102000000022414605B0BDE8F0430AF02EBB002C8B
:10201000DDD0D5F8900005B0BDE8F0430AF08CBBE8
:1020200040F2A2412720FEF7B5FF00BF140B0020AD
:102030002DE9F04FAB4C002387B0CDE9023394F883
:102040003C30D4F830A0022B07460E4604D040F2B4
:102050008B512720FEF79EFFD4F8801004A80AF0C9
:102060004AFC9AF88C30002F00F02A819DF811B0BC
:10207000BDF81490002B39D005F01AFAB0BBB9F1B5
:10208000000F0DD09AF8843003F001035B450BD1AB
:10209000012384F83530FFF73FFC07B0BDE8F08F2F
:1020A000A4F87C90002006E0A4F87C90D4F890007E
:1020B00049460AF0BAFA238D9DF81220A06743F42E
:1020C000007323859AF8833003F001039A425BD0B2
:1020D000256B95F88230ABB3022B14D1606C02A94A
:1020E0000AF04CFA40B940F23B41B2E7A4F87C90C8
:1020F000B9F1000FD6D0D9E7D5E93832013342F132
:102100000002C5E9383295F87D304FF0000885F8B7
:10211000828093B185F87D8001F0FCF810B940F21F
:10212000524196E741460820FFF7E8FBD5E93832EF
:10213000013342F10002C5E9383295F883300133AA
:1021400085F88330238D43F4006323854FF0000826
:102150009AF8843003F001035B4546D19DF81030B6
:10216000256B022B12D8FBB995F88430013385F822
:102170008430B9F1000F38D0D5E93A32013342F159
:102180000002C5E93A3230E0B846E1E7032BEBD173
:10219000238DD4F88010012043F4805385F87C000F
:1021A0002385FFF7ABFBDFE7B9F1000FDCD0238D10
:1021B00095F88C5043F48053238505F055FC042892
:1021C00094F8943006D1002D0CBF1F221B2293429D
:1021D00028BF1346994569D8A36F33B194F88C3062
:1021E000002B7CD02020FFF791FB00259AF88B3044
:1021F0009BB1012384F86C30DAF8E0309AF868007B
:102200006366DAF8E430A3660AF092FB0346002026
:1022100035490090FB2205F08BF8002E68D005F0C0
:102220000BFF002D40F0A6800126238D5A0606D410
:102230004020FFF76BFB238D43F040032385B8F16B
:10224000000F04D0B4F809300133A4F80930002F8E
:1022500000F09580B4F805300133A4F80530002370
:1022600084F88D30214802F09BFA029830B10AF0D0
:102270004DFA216B0022027201F084FE039B33B100
:10228000216B00221A720C22039801F049FE002EE5
:102290007FF401AF238D1B063FF5FFAE8020FFF7D3
:1022A00035FB238D43F080032385F6E694F8343024
:1022B000012043F0100384F8343007F025FF94E741
:1022C0000BB105F031F994F88D30013384F88D307D
:1022D000238D002543F480632385A84686E73D4689
:1022E00084E700BF140B0020680B0020400B002087
:1022F00094F88D30012B92D8D4F88430012098477F
:1023000000288CD094F83430002B88D194F87630A3
:1023100063B394F87700FFF751FB8146D4F8880047
:102320000BF00DFCA36F1BBBB4F87C30B3FA83F346
:102330005B09628C002A7FF472AF012814BF00236E
:1023400003F0010353EA09033FF469AF1DB103A988
:102350000120FFF703FE0020FFF74AFB002D3FF4AA
:1023600064AF03A90220FFF7F9FD5EE7B146D5E7A8
:102370000123DEE703A90320FFF7F0FD54E7B4F8DB
:1023800007300133A4F807306CE700BF9119000053
:1023900031200000A11B00007D19000010B504468B
:1023A0000AF0D6FA08B9002010BDE0430AF0D0FACE
:1023B0000028F8D0E31683EAA4635A1E1A42F2D02A
:1023C00020460BF028FD1828EDD8A3B2B3EB144F2C
:1023D00004D184EA142313F0FF1FE4D0034B6340BD
:1023E000581E1840003818BF0120DDE7D6BE898E80
:1023F000F0B5070CA7F5AA42144B543A012A03EA98
:1024000090231FD927F4004042F6AA22801A18BF51
:1024100001200022162116461F2487EA060562EADB
:102420000505013510D0DD03ADB245EA5606E503DA
:10243000ADB2013945EA52024FEA53034FEA540460
:10244000EBD1F0BD0020E4E70020FAE7E0FF3F0019
:1024500010B5044608480CF0DBF9204607490CF09B
:102460004EFB20460CF03BF920B1204603F0F6F974
:10247000002010BD1220FCE7B40B0020BC0B002094
:102480002DE9FF410678012E074640F0898031464C
:102490000020FFF729F9054620B940F633713920AD
:1024A000FEF778FDBB88002B72D10CF0D1F8002824
:1024B00070D195F8F430002B6ED12846FFF7C8FF95
:1024C000044600286AD131463046DFF84081FFF7E4
:1024D0000BF998F81C3006461BB110B940F64F7145
:1024E000DDE7D8F818200392002B45D096F8F43099
:1024F000002B41D07B88002B3ED198F80830009308
:10250000D8F8142098F80A1003AB30460CF05FF9A5
:1025100090B330460CF018FB06F14003074605F176
:102520004002643653F8041B42F8041BB342F9D14D
:102530002846FFF78DFF024610B140F67671AEE7F0
:102540000C2F07D10146284603F04AFDE0B940F6BA
:102550007A71A4E717B140F67F71A0E798F80930C7
:10256000296D43F0040385F85430284603F00AFD32
:1025700050B940F6817192E7BA887988284603F00D
:102580002FFD002808BF0724204604B0BDE8F081D5
:102590001124F9E73A24F7E70C24F5E71224F3E7CE
:1025A00001210020FFF7A0F8054610B940F694710C
:1025B00075E70CF048FA04460028E5D195F8543048
:1025C00095F8892022B195F88A20134385F889006F
:1025D000053B012BD8D82B6D13B940F6A4715EE7EB
:1025E00001210846FFF780F829460646F82209F03F
:1025F0008FFB0423316D86F85430304603F0C2FC63
:102600000028C1D140F6A97149E700BFAC0B0020FA
:10261000304BF0B59A88B0F85C70B0F85A60DD883D
:10262000974228BF1746964228BF16461B2E85B0F4
:102630000C462ED0B5F5A47F2DD040F648039D4220
:1026400001A928BF1D460AF01DFABDF80A30BB4299
:1026500028BF3B46E380BDF80C30AB4228BF2B4679
:102660002381BDF80630B34228BF33466380BDF8EE
:102670000830AB4228BF2B46A380FF232370E3889A
:102680001B3B9BB2E02B08D940F2F5613920FEF7E5
:1026900081FC1B2FCED105B0F0BD63881B3B9BB2E4
:1026A000E02B02D940F2F761F0E72389A3F5A47388
:1026B0009BB2B3F5E06F02D940F2F961E6E7A38877
:1026C000A3F5A4739BB2B3F5E06FE4D940F2FB61CC
:1026D000DCE700BFAC0B002038B50AF0CDFF00F0FE
:1026E000C9FF00F061FD0BF049FA02F0C7F801F0F4
:1026F000F9F901F0CFF90F4A0F4C1049002313608C
:102700000F4A62600F4A84F8203011601B219180CB
:1027100053745382938293750B4A23801068117906
:10272000A0600832217307CA04F1100585E807008C
:1027300038BD00BF50000020AC0B002003021B007E
:102740001B004801FC0F0020A0B30200044B41F61F
:102750004C52C3E902221B221A74FFF7BDBF00BF0F
:10276000FC0F0020024B1B6803B118470C20704778
:1027700050000020014B93F926007047AC0B00205D
:10278000034B5A8802801B7883700020704700BF7B
:10279000FC0F002013B583781A2B044608D8042BAD
:1027A00004D9124A22FA03F3DB0705D4122017E0FA
:1027B000292B01D03B2BF9D12088B0F5706FF5D2D1
:1027C00069460AF0A8FF68B9019B93F8182102F046
:1027D000FF004AB9A27883F81921FF2283F8182153
:1027E00002B010BD0220FBE70C20F9E720003804FE
:1027F0000188A1F11B039BB2E02B0CD84288A2F503
:10280000A4739BB244F24810834204D8034B0020C7
:102810009980DA8070471220704700BFAC0B00200F
:10282000034B9A88DB88028043800020704700BFFA
:10283000AC0B002038B50278447802F0010354EA6A
:10284000030102F0020201D1112038BDBAB9857826
:10285000002DF9D0002B18BF002400E01D462046B3
:102860000AF0BBF80028EFD028460AF0B6F8002896
:10287000EAD0054B00209C74DD749882E5E7002BBC
:10288000ECD000242546EAE7FC0F002013B50088B1
:1028900069460AF040FF18B10224204602B010BD7C
:1028A00001980AF08CF80028F6D0019890F82A31A7
:1028B0000BB13A24F1E790F8D23003F0FF04002B7B
:1028C000F7D190F8C9309B0703D1FF2380F82A3154
:1028D000E3E70249CA300BF079F9DEE7EFE30000E5
:1028E000F8B50378032B054602D912242046F8BD1B
:1028F0004378032BF9D8467E0EB11124F6E783788E
:10290000012BF2D100F046FCC307F6D5AB7813F0EB
:10291000010414D0EA78012A3AD82A693C49A2F283
:102920005370884236D8AC686FF41C7CA4F6C4108F
:10293000614488422ED8944234BF12240024980760
:1029400011D5EA78012A27D82A6932498A4225D83E
:10295000A9683148A1F6C41C84451FD8914238BFEC
:1029600012262643F4B259071DD5EB78012B0CD85B
:102970002B692949A3F6C4128A4211D8AA68A2F683
:10298000C41088420CD89A420DD244F01204ADE72C
:102990001224D4E73024D2E71226E2E73026E0E71B
:1029A00044F03004A2E7002CA0D12B7E013B062B83
:1029B0009BD801212046FEF797FE064620B940F637
:1029C00034613920FEF7E6FA90300CF092F818B135
:1029D00096F854309A0718D1EA78A978A868B5F81B
:1029E00000C02E7E012A1ABFB2FA82F252090222D8
:1029F000CB0748BF2F69094BC3E9050719725A7203
:102A0000A3F80AC01E73197470E70C246EE700BFA8
:102A10003CF670028FFD7002CBF37002AC0B00200D
:102A200000B589B043798DF8043083798DF805308D
:102A300001238DF8063003788DF80730B0F80130A7
:102A400040F271214B430393B0F803204A430C49F1
:102A50000592097B8DF81C1000218DF81D10094985
:102A6000A2F6C4128A4209D8A3F6C4138B4205D831
:102A700001A8FFF735FF09B05DF804FB3020FAE745
:102A8000AC0B00203C369C002DE9F04F447AA107A6
:102A900089B0054655D544F001044472072C52D83C
:102AA00000F078FB34EA000040F08F8195F8483060
:102AB000002B40F08A81012C45D1AB69A64AA3F2D4
:102AC0005371914200F27F81EA6893423BD8AA8F0A
:102AD000B5F842309A4236D8EB8E2A8E698DA88C92
:102AE00009F0AAFF002800F06E812B789A1E022AB6
:102AF00040F26B81012B26D813B9AB78012B22D879
:102B00006B78032B1FD895F84930013B062B1AD858
:102B1000DFF848A201210020FEF7E6FD9AF81C30FC
:102B20000646ABB901210846FEF7DEFD002818BFB6
:102B3000064606F190000BF0DCFF804610B30C2730
:102B400002E06207AAD11227384609B0BDE8F08F2B
:102B500090300BF0CEFF0028E4D0D6E924126FF0BD
:102B600000439A4208BFB1F1FF3FDBD16B7A00937B
:102B7000EA68697805F1180330460BF028FE8046B4
:102B80000028CFD030460BF069FD08B13A27DBE7CB
:102B900030460BF05DFD01460028F7D10DF1120023
:102BA000FEF72EFD0446002800F00B816C4BBDF8AB
:102BB00012B018681B7905908DF818309AF82730F4
:102BC0000DF1140913B1484600F06CFF654F002168
:102BD00020460AF0ACFD644BC4F8D831BB68A4F8B9
:102BE00000B0236395F84A3005EB430340F2E2421C
:102BF000988C598D002384F872305143504301F072
:102C00005BFF40F2E242A4F8B421A061C4F8B00135
:102C100020460CF000F9039000F0B6FA039B63879E
:102C2000524B97F810C01B6884F838C010F0200F82
:102C30000EBF1B227A88B988A4F85A2008BF114613
:102C4000A4F85C101BB194F9701058469847012302
:102C50007A887978E385BB880191397800910333CC
:102C600003329BB292B204F1140104F11000FEF79A
:102C7000ADFD236923B941F2E3113920FEF78AF94A
:102C8000636913B941F2E411F7E709F071FEE061FD
:102C900001F00EFA20F07F40606295F84A30F96842
:102CA00005EB430320461A8EDB8E638422840CF0EE
:102CB000AFF8494604F18E000AF049FE9AF8273031
:102CC00013B9FF2384F8DC31DAF8283023B101226C
:102CD00004F58D7120469847254920460AF0E2FD0B
:102CE00001F0E6F90C23B0FBF3F202FB1300C0B2D3
:102CF000431DDBB2082B9CBF0D30C3B284F89A3061
:102D0000012120460AF013FD204603F089FB074607
:102D1000B8F1000F10D188B9697830460BF011FD79
:102D200005F1030AAA782978534630460BF0B6FC21
:102D3000002854D1122701E00028F1D0208800F0AB
:102D40009BFA20880021FEF7E5FC00283FF4FCAE4A
:102D500041F2BA4191E700BF3CF67002AC0B002093
:102D60003F130300FC0F0020CC0B00205400002078
:102D70000E10002095F802B00593C9F804304846BB
:102D8000FEF7ECFC00284AD1059FBC42F7D00BF0BF
:102D9000FD00003818BF0120BA78FB1C51460AF02C
:102DA0006CFC0028EBD07A7A607A07F10A0304F110
:102DB0000A010AF062FC0028E1D00B27BEE70727D2
:102DC000BCE70D27C0E63027BEE61127BCE604218C
:102DD00030460BF08DFC002845D10C27AEE7B8F14A
:102DE000000F02D1304602F039FDAA782978534607
:102DF00030460BF0B3FCB8F1000F02D1042386F883
:102E000054303465A97801F0FD010039524618BFED
:102E1000012130460BF0BDFC2B78002BAAD00121FC
:102E200030460BF0D1FCB8F1000FD0D1EB6806931F
:102E30006B7A8DF81480DB0744BFAB690793494672
:102E400048BF0123304648BF8DF814300BF057FEC1
:102E500095F8491030460BF01EFC2146304603F031
:102E600091F80028ABD000276EE600BF10B543797B
:102E7000032B94B056D823F002038DF80630D0F817
:102E80000630CDF807304389ADF80B3001238DF8BB
:102E90000D30038802798DF8042040F27121027B05
:102EA0008DF805204B43049342884A430792847B64
:102EB000417B41EA0421ADF82810047CC17B41EA42
:102EC0000421ADF82E10847C417C41EA0421ADF848
:102ED0003410047DC17C41EA0421ADF83A10417DF3
:102EE000847D41EA0421ADF84010C17D007E41EAB5
:102EF0000021ADF8461000218DF84C100B488DF8DC
:102F00004E100B49007B8DF84D00A2F6C4128A4288
:102F10000AD8A3F6C4138B4206D801A8FFF7B4FD64
:102F200014B010BD1220FBE73020F9E7AC0B0020F5
:102F30003C369C0038B501210020FEF7D5FB054644
:102F400020B941F2ED413920FEF724F890300BF022
:102F5000D0FD1E4B1B7F5BB3F0B195F85430053BA1
:102F6000012B19D828460BF0EFFD044610B141F2B1
:102F7000F841E8E7284602F007FC95F8543023F0C2
:102F8000040385F8543022462146284603F028F8E9
:102F900080B941F2FD41D6E701210846FEF7A4FBC6
:102FA000054610B941F20451CDE790300BF0A1FD78
:102FB00010B90C24204638BD28460BF0C5FD044648
:102FC0000028F7D1284602F0DFFBF3E7AC0B002026
:102FD0000278034672B1427862B142881A2A09D94E
:102FE00082881A2A06D9044A006810609B88938058
:102FF0000020704712207047FC0F0020024B02682F
:103000009A600020704700BFFC0F0020024B02684E
:10301000DA600020704700BFFC0F00200378A3F1A6
:103020000A02112A9DBF024A002013741220704721
:10303000FC0F00200378FF2B14D14378FF2B11D114
:103040008378FF2B0ED1C378FF2B0BD1037923F0AC
:10305000E0021F2A06D11F2B04D0034A5B09137319
:103060000020704712207047AC0B002008B50520E7
:1030700000F07EF80CF00AF8014B024A9A6208BD93
:10308000AC0B00201126000008B501F04BFC03F04A
:10309000B9F9FFF76FFBBDE808400146014802F0AF
:1030A0008FBB00BFD80B002008B502F0BBFBFFF7B9
:1030B000EBFF0AF0DFFA074B184603F58471FEF7C1
:1030C00023FE002009F0A4FB0BF0DEFFBDE8084062
:1030D00000F00CBFD80B002010B50A4C072000F000
:1030E00047F804F5037008490AF016F904F504706E
:1030F00006490AF011F904F505700549BDE81040CC
:103100000AF00AB9D80B0020580000206000002007
:103110006800002038B5094C0D4600F0C3FED4F815
:103120000C02C4F804510AF0EFF8FFF70FFB00F0AF
:10313000D7FF012384F8183238BD00BFD80B002018
:10314000014B93F818027047D80B002010B5074CBC
:10315000D4F810020AF0D8F8D4F814020AF0D4F81F
:10316000FFF7BAFA002384F8183210BDD80B0020FC
:10317000C208044900F0070001238340885C034330
:103180008B54704710000020014BD3E900017047B9
:1031900010000020034B1868C0F30020400040F0EE
:1031A000010070471000002008B508F0D7F8084A61
:1031B000002332F82310814205D302EB8302937877
:1031C000044A137008BD01330C2BF2D10023F7E73A
:1031D000B4B30200F10D0020024B1878072828BF75
:1031E00007207047F10D002010B544682388A4F82B
:1031F000683194F8683084F86711012B06D0022BEF
:1032000004D04FF461710620FDF7C4FE84F86A31E2
:1032100094F86930012B01D0022BF2D184F86B3184
:10322000044904F5AF700AF0D1FC002384F824317E
:1032300010BD00BF85D30000406808490388A0F88E
:103240005A3190F8603080F85C3190F8613080F845
:103250005D3100F251100AF0B3BC00BF9BD30000F7
:10326000044B002283F822204FF6FF729A84DA84FE
:103270001A857047F20D0020054B9A8C824201BFDF
:10328000002283F822204FF6FF729A84704700BF15
:10329000F20D0020014BD884704700BFF20D0020D2
:1032A000084B998C4FF6FF72914206D193F8222079
:1032B000012A04D00360012070470023036000202E
:1032C000704700BFF20D0020064B93F82220012A20
:1032D0001FBF0120DA8C83F822009A8408BF0020E7
:1032E000704700BFF20D0020014B1885704700BFEA
:1032F000F20D0020064B0246198D988C884205D1AC
:1033000093F8220018B11360012070470020704725
:10331000F20D0020094B998C1A8D914201D00020AA
:1033200070474FF6FF729A8493F82220002AF6D055
:10333000002283F822200120704700BFF20D0020F8
:10334000054B998C1A8D914203BF93F82200B0FA75
:1033500080F0400901207047F20D002050B90A4A60
:103360001346012003F8010B0868C2F801008A889F
:103370009A807047012805D1034B0A689A608A88B1
:10338000D8719A81704700BF1C0E002050B90B4BBA
:10339000187888B1D3F80120B3F805300A608B8023
:1033A00001207047012806D1044BD87920B19A68D2
:1033B0000A609B89F3E70020704700BF1C0E0020C5
:1033C00010B9044B18787047012806BF014BD87913
:1033D000002070471C0E0020F7B500238A888DF866
:1033E0000600ADF8042008680B4A8DF80730019DEF
:1033F0001478014602F5A872D8B2844201D8082098
:1034000008E052F8087F5668AE4208BF8F4203F1C9
:103410000103F1D103B0F0BD300E002030B5094BEF
:1034200001465C78002203F20113D0B2844201D835
:10343000082005E013F8015F8D4202F10102F4D18A
:1034400030BD00BF300E0020F8B52D4C6378013B35
:10345000DBB22218834292F80251637030D01A0115
:103460000101961C8F1C2644274406F1100C56F8C7
:1034700004EB47F804EB6645F9D1823282312244ED
:10348000214402F1100652F8047B41F8047BB24259
:10349000F9D1E118221891F8026182F8026106263A
:1034A0007343704303F5857300F58570E618E358A0
:1034B00023502718B388BB8091F83A3182F83A310B
:1034C0002846FFF7ABFF082818D12378013BDBB271
:1034D0009D42237012D02B3304EBC30393E8030007
:1034E00005F12B0204EBC20282E803002078FFF70B
:1034F00095FF08281CBF241884F80251F8BD00BFAE
:10350000300E0020F0B5254D95F8984189B022463F
:1035100005F29911684608F0FBFB214668460AF05F
:10352000CAF80446B8B300EB4001C9B202A8FDF7DF
:1035300075FE631E95F8A161DBB2012495F8981120
:1035400005E0721CB2FBF1F001FB1022D6B206F1CD
:1035500020020DEB020010F8202C002AF1D103EB21
:1035600043012031694406EB46022A4411F8187CD5
:1035700082F8A27111F8177C11F8161C82F8A37159
:1035800082F8A41100F8204C013BAA19DBB2FF2BF2
:1035900082F89941D2D109B0F0BD00BF300E0020B1
:1035A00070B5064688B00C46002A4ED0294A92F8DB
:1035B000A131D01890F8991119B9FF212820FDF7F1
:1035C000E9FC03EB43011144013391F8A251E5708A
:1035D00091F8A35191F8A41161710021257180F82F
:1035E000991192F89811B3FBF1F001FB103382F8B6
:1035F000A13192F8C23123B9174902F5DD700AF002
:10360000E2FA657905F03F0545F0400565710D2248
:103610000021684608F03CFBE3788DF80F302379F1
:103620008DF80E3004AA0423694630468DF80D50FB
:1036300008F0B6F99DF81F3023709DF81E306370B6
:103640009DF81D30A37008B070BD03216018FDF710
:10365000E5FDD6E7300E002005350000044B5A7812
:10366000824286BF1B1893F842010020704700BFBA
:10367000300E0020064B00224FF461711A8083F84F
:10368000C32183F8C421A3F8C61183F8C22170476F
:10369000300E002010B51446FFF79EFE082813D008
:1036A000FFF7BCFE094B5A7882420DD904B1207055
:1036B000184490F83A3190F84A01012B08BF40F0C5
:1036C000010000F0010010BD0120FAE7300E0020DB
:1036D0002DE9F0478246894617469846FFF77CFE5B
:1036E00008280546064603D0FFF798FE082860D153
:1036F000324C6378072B5ED8082D15D12678731CC1
:10370000072E237003D96C212820FDF743FC06F116
:103710002B02D9F8000044F8320004EBC203B9F8D8
:1037200004209A8083F806A065786B1C29016370D9
:103730004B1C07F11002234412F8010D03F8010F8E
:10374000BA42F9D1813108F11003214413F8012D57
:1037500001F8012F9845F9D1102140460AF044F8AC
:103760002544102185F8420138460AF03DF885F8D5
:103770000261667885F84A010023114885F83A31DC
:10378000314609F098FF0128054607D80D48314613
:1037900009F091FF002818BF0135EDB284F8985167
:1037A0000025284684F8A151FFF7ACFE2846BDE865
:1037B000F0871220FBE70720F9E700BF300E00205A
:1037C000720F00207A0F002010B5064B5878013890
:1037D00040B2002800DA10BDC4B22046FFF734FE24
:1037E000601EF5E7300E0020014B83F8C3017047DF
:1037F000300E0020014B93F8C3017047300E0020BB
:10380000431E9BB24AF2B71293429DBF024BA3F8EC
:10381000C601012000207047300E0020014BB3F894
:10382000C6017047300E002030B50A4B5C788442E8
:103830000ED9184490F802012B3003EBC004A5798F
:103840000D7053F830001060A3889380012030BDC4
:103850000020FCE7300E00200246074810B590F823
:10386000C34124B1417821B1023003F0D7FC204696
:1038700010BD0C46FBE700BF300E0020F8B5184C19
:10388000064648B3617804F5A17009F014FF94F876
:1038900098510746294604F2991009F00CFF2D1A99
:1038A000EDB2AF421AD800256278EBB29A4201D845
:1038B0000120F8BDE21892F842215AB9062101FB15
:1038C000034104EB0313324601F5857103F18200D5
:1038D000FFF766FE0135E7E70546E5E70020E8E784
:1038E000300E0020F0B51B4E7378834289B0074636
:1038F0000D462CD9331893F8424144BB0D22214682
:10390000684608F0C5F9EB788DF80F302B798DF803
:103910000E3006EB07106B798DF80D3004AA0423E6
:103920006946823008F03CF82A789DF81F309A42A8
:103930000AD16A789DF81E309A4205D1AC789DF87C
:103940001D30E31A5C425C41204609B0F0BD002006
:10395000FBE700BF300E0020074B5A78824209D99E
:103960001A1892F842212AB9062202FB003000F50B
:103970008570704700207047300E0020F8B50E4665
:10398000074606213046154609F02EFF044670B161
:103990000C4B0022587803F23913D1B2884202D876
:1039A00001242046F8BD03F8015F0132F5E73146F6
:1039B000384609F09CFE0828F3D0024B034483F8F4
:1039C0003A51EDE7300E002030B50024A0F8404019
:1039D000B0F8444042F210754C43B4FBF2F4A0F846
:1039E0004440541E05FB0343B3FBF2F3A0F84230FE
:1039F000084BB3FBF2F30133A0F84830838F05FB8B
:103A00000344436BB4FBF2F459438463B1FBF2F11A
:103A1000416330BD005A6202034B80F870101B688E
:103A20000BB100881847704770000020074B93F9CE
:103A300000301844142804DC10F17F0F03DB40B27F
:103A40007047142070476FF07E007047F80F002019
:103A500007B57F230DF107008DF8073004F0C8FA91
:103A600003469DF9070053B1094B5B785B4240FA6E
:103A700083F0142806DC10F17F0F05DB40B203B0A1
:103A80005DF804FB1420FAE76FF07E00F7E700BF53
:103A9000F80F0020024B00221A705A70704700BFC6
:103AA000F80F0020054B1B7833B9054B1A681B79BA
:103AB000026003710120704700207047FA0F002058
:103AC00018000020054BFF221A70054A016811609A
:103AD0000179117100221A70704700BFFA0F00209F
:103AE0001800002007B5064A1068009012798DF87A
:103AF00004206846FFF7E6FF03B05DF804FB00BF53
:103B00003F1303000346407898B1DB783F2B05D87C
:103B1000084AD35C1B1A58425841704703F10C0203
:103B2000D2B2042A04D8034A134413F8B43CF1E790
:103B30000120704700B402003F2908B5C17003D8C6
:103B40000B4B5B5C437008BD01F10C03DBB2042B33
:103B500004D8074B0B4413F8B43CF3E7FF2904D017
:103B600040F23A412A20FDF715FA0123EAE700BFA7
:103B700000B402002DE9F347894669461546984688
:103B800009F0C9FD044620B9019E35B9012386F824
:103B90008D30012002B0BDE8F087376929463846EC
:103BA00008F071FC01460028F4D0134B5B88AB424F
:103BB0001FD3384608F0A6FD96F88D300480002B00
:103BC0000CBF494602218246847009F0A8FF414695
:103BD0002A460AF1030008F09BF82946384608F007
:103BE0008DFC18B97E212B20FDF7D4F986F88D4085
:103BF000CFE72046CEE700BFFC0F0020024B987DA8
:103C0000C04300F001007047FC0F0020044B987D7A
:103C1000C0F3400080F0010000F00100704700BFD9
:103C2000FC0F002083230B70014B1B78CB70704777
:103C3000141000202DE9F84FD0F80480D8F8146053
:103C400030460D4608F050FD044618B9FF211020FB
:103C5000FDF7A0F90146304608F054FDB4F800B075
:103C60001FFA8BF98246B9F1000F02D140F203111D
:103C7000EDE71E4B1B68C71C8BB9B8F80030AB8052
:103C800000236B72A5F806B09AF8003003F0030326
:103C9000012B0FD0022B0DD040F21D11D7E7B8F841
:103CA00000004A463946984704460028E5D1204698
:103CB000BDE8F88F2B72304608F02AFD044610B993
:103CC0004FF49371C3E7B9F1FB0F02D940F23511FC
:103CD000BDE7286810B94FF49B71B8E74A463946EA
:103CE00008F016F8304608F06EFCE0E7740000209B
:103CF0002DE9F347DFF850818246894605270026E3
:103D0000D9F8103053B11B7A1BB980211020FDF770
:103D100041F9D9F81040B4B9002071E0D9F8044055
:103D2000237A012BF8D0EFF3108372B6D9F8042070
:103D30001268C9F8042003B962B6C9F81040237AA2
:103D40000BB9A621E2E7257AEDB227726B1E0B2B89
:103D50006AD8DFE803F066061C3463693D69696967
:103D60006958636813B94FF4D771CFE720465146BD
:103D700098470420EFF3108272B6237A052BD9B24C
:103D80005CD12672C9F81060B2B962B614E06368FB
:103D900013B940F2B711B9E7514620469847034698
:103DA000C3F30723012BADF80400C0B23FD0022BB0
:103DB000E0D10023C9F810300028A1D020E06368CA
:103DC00013B940F2BF11A1E7204698470020D1E780
:103DD00063680BB9B52199E70D228AF8002019888C
:103DE0001869AAF80310012200248AF802208AF830
:103DF00005208AF8064008F0E6FBC9F810400420C8
:103E000002B0BDE8F087D8F8003051462046984708
:103E1000034660B1C9F810600220F1E74FF4FB716E
:103E200074E740F2F91171E74FF4FE716EE7257205
:103E30000028E5D1002B7FF463AF6DE711B940F2A4
:103E40001D2163E700209FE77800002038B5134C60
:103E500014220021201D07F01BFF012525741422C8
:103E600004F10803002104F11800C4E9013307F04C
:103E70000FFF84F8245004F11C03C4E90633084AF8
:103E80000023E362236384F83430C4F83530C4F887
:103E9000393084F83D30136038BD00BF1410002065
:103EA0007400002010B5084C2378FF2B04D04FF489
:103EB000A0711020FDF76EF807F0B8FD2070BDE886
:103EC0001040FFF7C3BF00BF1D00002010B5034C1A
:103ED000207807F0C5FDFF23237010BD1D000020D2
:103EE000014B187807F0CCBD1D000020014B024AA1
:103EF0001A60704778000020353C000010B5064974
:103F00000446FFF7F5FE28B920460449BDE81040F5
:103F1000FFF7EEBE10BD00BF2C10002018100020CF
:103F200010B51346027A22B140F299211020FDF714
:103F300031F80A46BDE810400146014809F020BEAC
:103F400018100020044890F834301BB903492C3075
:103F500009F033BE704700BF1410002073DB00006F
:103F60000346064890F83E203AB190F83D2022B929
:103F700000F8353B024909F020BE704714100020BC
:103F8000253C000010B50A46037A23B140F2A12176
:103F90001020FCF7FFFF0146BDE810400148072351
:103FA00009F0EEBD2C1000201346027A0AB103720C
:103FB00070470A460146014809F0E2BD181000208A
:103FC0001B234FF01B128384038482618382C260AF
:103FD000038539B94FF4A473034AC3844384C2618F
:103FE000C3820261704700BF480148010346F0B434
:103FF000B3F85420B3F84840B3F84460DF8FB3F807
:104000004250944228BF14460846B3F84C20B3F8F7
:104010005610DC878A4228BF0A46B3F84610A3F838
:104020004220914238BF1146A64238BF2646A742D9
:10403000A3F84460A3F846101FD1AA1A18BF0122A2
:10404000B3F84A50B3F85040B3F852709E8FB3F8AB
:104050004010A54228BF2546B3F84E409D87BC427C
:1040600028BF3C46AE42A3F8404002D1A14200D155
:104070002AB1F0BC034909F0A9BD0122E0E7F0BC78
:10408000704700BFD3DB00000B8BA2F80B304B8BCB
:10409000A2F80D308B8BA2F80F30CB8BA2F8090061
:1040A0000249A2F81130104609F08ABD23DC000055
:1040B000094AD2E90003434083EAB01181EA43216F
:1040C0004FEAF3435360054B116058434FEAF060E9
:1040D00000EB8000704700BF20000020BB79379EB6
:1040E00010B50A4C09480821FDF798F8D4E90032C8
:1040F0001343F7D0064CFFF7DBFF2060FFF7D8FF34
:10410000236860601843F6D010BD00BF2000002077
:104110005410002038B5A0F10B03DBB23F2B14463E
:1041200098BF0C4A0D46204694BFD15CFE2109F091
:1041300087FE68B965B12978272907D03F2908BFCC
:104140003E212046BDE8384009F07ABE2621F8E736
:1041500038BD00BF45B40200174B184A9A60184A90
:10416000DA62184A1A61184A5A61184A9A61184A5A
:104170001A63184A5A62184ADA64184A9A64184A42
:104180009A63184B184A9A60184A1A62184A5A6079
:10419000184A1A60184A9A62184ADA62184ADA60AB
:1041A000184A9A61184A1A63184A9A64184ADA64D3
:1041B000184A5A62704700BF7C0000207BDF000075
:1041C00077E200004BE200000FE2000069450000CA
:1041D000094700001146000079E3000095E3000064
:1041E000CD4500009001002097DF000041E3000072
:1041F000ABDF0000AFE00000D5E2000093E200007A
:10420000F7E20000B7E200000DE40000B5E30000B3
:10421000B1E300005BE30000054B064A1A65064A5D
:104220005A65064B064A1A65064A5A65704700BF2A
:104230007C00002041E10000E3E00000900100204C
:10424000C9E00000CDE10000054B064A9A65064A28
:10425000DA65064B064A9A65064A1A66704700BF39
:104260007C000020BBD40000B3D5000090010020EA
:1042700003D4000009D600002DE9F04105460C46A4
:10428000252A00F21E81DFE812F026005B0075008F
:1042900080001C011C015900970099009E005900E4
:1042A0005900A2001C011C011C011C01AC0059009A
:1042B0005900BF00BF00D5001C01DC001C011C011F
:1042C0001C011C011C011C011C011C011C011C0106
:1042D00002010C011401456840F2E240D5F8EC11EE
:1042E000B5F8E621B1FBF0F3E371C3F307232372C2
:1042F000B2FBF0F22271B5F8F03163721B0AA372BF
:10430000B5F8F231E3721B0A237395F80F3133B914
:1043100005F5F27305F5F472284609F053FEB5F879
:10432000E43163731B0AA373D5F8E83140F2E2422B
:10433000B3FBF2F36371C3F30723A371BDE8F0810C
:104340004668D6F8D831D3F801204A605B790B7201
:10435000406890F80F313BB909F0D2FD6B68B3F8B3
:1043600080301844A6F8DE01B6F8DE3163721B0A0D
:10437000A372E3E70378012B436802D193F810316D
:1043800001E093F819312371D8E74368D3F81C2270
:104390004A60D3F820228A60B3F824228A81D3F8B5
:1043A000FC21C1F80E20D3F80022C1F81220D3F866
:1043B0000031C1F81630C1E74368DFE7BDE8F041DE
:1043C000084600F05BB9BDE8F04100F067B959223A
:1043D0004A71002210238A7120220B71CA710B725C
:1043E000ACE7027843684AB993F8102132B193F8E8
:1043F0000D210A7193F80C3163719FE793F80B213B
:10440000227193F80A31F7E74368B3F854200A7130
:10441000120A4A71B3F812218A71120ACA71B3F8EA
:1044200050200A72120A4A72B3F810318B721B0ABA
:10443000CB7283E7436893F826210A7193F82731FA
:10444000DAE7476897F8E30109F014F8064697F8A9
:10445000E20109F00FF88046686890F80F316BB9F7
:1044600046EA080313F0FF0306D009F049FD6B6824
:10447000B3F8803003449BB2A7F8E031B7F8E031DD
:10448000A3711B0AE371667184F8048056E70F4B31
:104490001B68002B3FF452AF02462320BDE8F041D9
:1044A00018470A4B1B68002B3FF448AF02462420F4
:1044B000F4E7064B1B68002B3FF440AF0246252073
:1044C000ECE74FF4A1615120FCF764FDA402002049
:1044D0003F2803D8064B53F82000704700F10C0327
:1044E000DBB2042B01D8B438F4E70020704700BFDA
:1044F0007C0000203F2803D8064B53F8200070476B
:1045000000F10C03DBB2042B01D8B438F4E700202F
:10451000704700BF90010020F7B545682E6904463A
:104520004FF6FF770DF102010DF101023046ADF8B3
:10453000027007F0FEFF01A9304608F01FF840B1F5
:10454000019808F0E3F8616800220272FFF71AFD93
:10455000E8E7044905F1A00003B0BDE8F04009F028
:104560002FBB00BF09DF000038B5436893F88620F1
:104570001B2A044624D1002283F8C72083F8C220D6
:1045800083F82622436893F8C8101D8803F5C97084
:1045900069B10C4983F8C820A3F89C5183F89B218A
:1045A00009F00BFB6368002083F8860038BD012208
:1045B00083F89B11A3F89C51034983F89E21EFE7F0
:1045C0000220F3E7FBE10000EDE1000038B54468AC
:1045D00094F88750B5B94A680B4B896813400B4A69
:1045E000C4F8D830C3F3076343F008030A4084F8E3
:1045F000DB30C4F8DC2009F04CFC042384F887305D
:10460000284638BD0125FBE72FC904F76FDB008082
:1046100008B5406890F88630042B2AD14B688A6828
:10462000C0F8D830C3F3076343F0080380F8DB30E9
:104630000023C0F8DC2080F8C23080F8863080F893
:104640002B3190F8743103F0FF020BB1002008BD4C
:104650000388A0F8763180F875214B68C0F878316E
:104660008B68C0F87C31044900F5B67009F0A5FAF2
:10467000ECE70120EBE700BF1FE3000010B50446A4
:10468000FEF782FD034A044B02400B406260A360C8
:1046900010BD00BF2FC904F76FDB008037B50C4693
:1046A0004568FEF771FD084A084B0A4095F8D81096
:1046B0000192034000930B408DF800306B4603CB12
:1046C0006060A16003B030BD6FDB00802FC904F7CC
:1046D00038B5DB04154604D5037D13B100234363CD
:1046E00038BD446B0134446309F071FE836B9C4216
:1046F000F6D30023436303492846BDE8384009F058
:1047000065BA00BF6BE3000038B5446894F88630A2
:10471000012B054603D094F88730002B3CD194F848
:10472000C930980715D40A7984F8D320B1F8052048
:10473000A4F8D420B1F80720A4F8D62043F0020250
:1047400084F8C920DA070FD5144904F1CA0009F02A
:104750003DFA94F8C930DB0711D494F8873043B19F
:1047600050214020FCF716FC94F82A31002BEBD1A5
:10477000EFE7012384F88730284609F08AFB94F894
:104780008630012B4FF0000301D0002038BD84F8A3
:10479000863084F8C230F8E70120F7E7EFE3000045
:1047A00070B545680446FFF753F9054B85F8850059
:1047B0001B6801461BB12046BDE87040184770BD1C
:1047C000AC020020024B1B6803B11847704700BFC2
:1047D000A8020020F0B51F4D2B78002414709BB167
:1047E000013B6D68DBB21E1B012E0FDC05EBC4061E
:1047F00055F8347076688E4208BF874227D0B84299
:1048000071EB060612D214700020F0BD1E1977104D
:1048100005EBC70E55F837C0DEF804708445C6F3C3
:1048200047068F412CBF33463446DCE705EBC30413
:1048300055F8335064688C4208BF854206D0A842C0
:1048400071EB040428BF01331370DDE71C461470BC
:104850000120DAE76C10002010F0070208B503D041
:1048600063214820FCF796FB18B1034B197258607E
:104870001A70C80008BD00BF6C100020014B002258
:104880001A7070476C1000200A46822302F8033B1E
:1048900004480368C1F80330436853608368936039
:1048A000704700BF7510002002481622002107F053
:1048B000EFB900BF75100020F7B5174C02AB03E944
:1048C0000300637D33B30D46D1E9687609F0D2FD6C
:1048D00095F86820114B124933F8123057304FF4D5
:1048E0007A7203F23F63B3FBF2F3DB1946F1000681
:1048F0001B182A886360B5F88030228046F10006D4
:10490000022204F10C00A660638003B0BDE8F04011
:10491000FFF74ABB03B0F0BD7510002000B50200E0
:1049200089480000014B00221A6070479010002057
:1049300008B5044B186810B9FFF7F4FF08BD0C2048
:10494000FCE700BF90100020024B1879003818BF18
:10495000012070479010002013B5CDE90012054BDF
:10496000FF225A7100F11003DDE9000183E8030022
:1049700002B010BD90100020C3693BB983692BB908
:10498000034B1B681B1A584258417047012070475F
:104990009010002030B50D4AFF231371D0E9065363
:1049A00073B1D0E902140C44D9689D612144D960E7
:1049B000816939B1CB610023C0E90633137130BD81
:1049C0001560F5E7002BF6D0D960F4E790100020D1
:1049D00010B5124AFF231371C16189B9136883614D
:1049E00003B1D8611060C1690023C36099B1CB687D
:1049F0007BB18468A3420AD230213720FCF7CAFA7F
:104A00008B6988618361002BEDD0D861EBE71B1BBC
:104A1000C3600023CB600023137110BD90100020F1
:104A2000014B1868704700BF90100020034B1B68B3
:104A3000002003B9704718469B69FAE790100020E0
:104A40000B4B00221B6830B504464FF0FF35104673
:104A500023B911B9002808BF104630BDDA68A24258
:104A600003D3AA423CBF154618461A469B69EFE796
:104A70009010002070B50F4CFF232371036A1BB107
:104A800081689D68A94203D2E5213720FCF782FAAC
:104A9000C2698669DA619E6152B193619A691AB1FD
:104AA000D361C26811444A1BDA600023237170BDD0
:104AB0002360F3E790100020F8B52A4E04464FF02B
:104AC000000C084686F805C0002135680B4685B9FC
:104AD0007579002DF6D15BB1984225D3B0FBF3F187
:104AE000013C03FB01F51C44B4FBF3F48C420ED9EA
:104AF000F8BD2F690BB19F4207D23B4627B94FF44F
:104B0000A3713720FCF746FAA98AAD69DFE7B5FB48
:104B1000F3F603FB165626B9B5FBF2F602FB165662
:104B2000DEB10139ED1AE1E7451E1D44B3FBF4F493
:104B3000B5FBF0F5AC42DBD3B3FBF5F605FB16375E
:104B40004FB9B6FBF2F702FB176727B9B6FBF1F7CF
:104B500001FB17671FB10135ECE72846C8E730466F
:104B6000C6E700BF90100020024B1B68002283F8AC
:104B7000702070479810002008B5FEF769FF014BC0
:104B8000187008BD28000020024B18686C3001F036
:104B90003BB800BF9810002038B50F4CFFF7F4FF6A
:104BA000656801F007F863682860186820B940F26A
:104BB000EC413220FCF7EEF909F043FE10B940F267
:104BC000EE41F6E703F0A4F9002003F0D5F963689D
:104BD00004221A7138BD00BF9810002070B52B4C0C
:104BE00063680646186809F02CFE054620B941F2B4
:104BF000AE313220FCF7CEF9236893F8543013B964
:104C000041F2B431F5E776B108F063FF30B1636883
:104C10001A79022A0ED841F23431EAE7284608F020
:104C200070FF0028F3D163681A79022A17D841F27D
:104C30009431DEE71A79082A02D941F23531D8E7F2
:104C40001B79A26803F180431269033B284652F89E
:104C5000233098470C2812D941F2C731C9E71A7995
:104C6000082A02D941F29531C3E71B79A26803F102
:104C700080435269033B52F823309847EAE7A36820
:104C8000DB68BDE8704053F82030184798100020CA
:104C900008B5074B93F900207F2A04D140F29231E6
:104CA0003220FCF777F902707F221A7008BD00BF2E
:104CB0002800002010B504788EB004F00F042246BE
:104CC00004A909F0DFFDFFF757FF042C33D11B4C7B
:104CD000059A2368107893F8741088422BD1507885
:104CE00093F87510884226D1907893F87610884210
:104CF00021D1D07893F8771088421CD1107993F89D
:104D00007810884217D1517993F87920914212D1C5
:104D10009DF8212093F87A309A420CD10DF10F00C2
:104D2000FFF7B6FF9DF90F300093237C227B60686C
:104D300004A909F098FD03200EB010BD98100020C2
:104D400010B50D4A53681979022904D841F2A641D9
:104D50003220FCF71FF91979082902D941F2A7413D
:104D6000F6E71B79926803F180439268033BBDE844
:104D7000104052F8233018479810002010B5054C09
:104D8000637B2BB103F026F902F07AFA00236373F8
:104D900010BD00BF9810002010B5064CFFF7EEFFC5
:104DA000636801221A71FFF7EFFE2068BDE810402A
:104DB00009F0DFBF9810002010B500B919B9BDE89F
:104DC0001040FFF7E9BF0D4A53681979082904D844
:104DD00041F276413220FCF7DDF819790C2902D92D
:104DE00041F27741F6E71B79926803F180435268FC
:104DF000093BBDE8104052F82330184798100020B6
:104E000038B52F4CFFF7C0FE656800F0D3FE63682D
:104E10002860186820B940F249413220FCF7BAF8FE
:104E200009F00FFD054610B940F24B41F5E7236844
:104E300093F889306BB123681A6D93F88A10C3F820
:104E4000F02093F854200A4383F85420002283F87A
:104E5000892063681A795AB11B79012B08D0206820
:104E6000002109F078FE18B9BDE83840FFF794BF7B
:104E70002368144A93F88830D05C02F00FFF0121B8
:104E8000252002F03FFE284603F042F801210846A3
:104E900002F02EFFE81CFEF7DFFC607320B102F089
:104EA000D5F9402003F08AF8626800230821E373F3
:104EB000A3732374D380032321735171137138BDFD
:104EC0009810002085B4020070B5384C63681B79D7
:104ED000012B054604D940F6F9013220FCF75AF8B7
:104EE00002F042FE03F076F802F0CAF9304803F00F
:104EF00007F8304802F0FEFF2F4802F0C5FE6B7A3B
:104F000023B123681B6E0BB101221A602B7A032B8D
:104F100002D140F62811E0E7206893B9032190F808
:104F2000882090F84A500E460132B2FBF6F303EBAC
:104F30004303D31ADAB245FA03F3DB072BD580F823
:104F4000882090F9580002F099FEFFF759FF256874
:104F500095F84830F3B1D5E920126FF000439A423A
:104F600008BFB1F1FF3F15D004F002FED5E92023C0
:104F7000904299410ED3236893F8483083B925684D
:104F8000FEF74CFC044604F0F3FD0C4BE4FB03017C
:104F9000C5E9200170BD013911F0FF01C4D1CEE790
:104FA0000120FEF76BFC0028F4D0E8E79810002001
:104FB000B002002055555500D6BE898E40420F00E4
:104FC0002DE9F8435C4F06467869D7F80080002346
:104FD00003704370894602F0B7FF054630B90320DD
:104FE000FEF7BEFF00252846BDE8F8837C69032E46
:104FF00023782FD123F00F0343F0030323700C23F6
:1050000063707869D8F87430C0F80930B8F878302F
:10501000A0F80D3098F87A1008F051FD3B6893F82D
:10502000482093F8418003F14209002A62D14C469E
:1050300078692368C0F80330A388A0F80730414698
:1050400008F030FD3D4BD3F80431002B66D002F060
:10505000BFFEC4E723F02F0343EA49133968222235
:1050600043F00503627023700B6DDB69C4F80F30E9
:105070000B6D5A6AE274100A120C207562759A8DD3
:1050800040F2E240B2FBF0F2A2759A6AB2FBF0F293
:10509000E275C2F3072222769A69B2FBF0F26276D9
:1050A000C2F30722A2761A8CE276120A22775A8C71
:1050B0006277120AA277D3F88F20C4F81F2093F8E2
:1050C000933084F823300B6D94F8242093F89A30B1
:1050D00022F01F0203F01F03134384F82430FEF76D
:1050E0007BF894F8243003F01F0343EA401384F85C
:1050F000243086E793F8542052070CD593F84C20BF
:105100004AB193F84D00FEF727FC044600288ED0E4
:105110004FF001088CE77B685879F4E7052E7FF49F
:1051200062AF3B6821681A6DC2F80A10A188D1816C
:105130001B6D83F8098056E798100020001000408E
:1051400010B500210320FFF73BFF18B9BDE8104060
:10515000FFF722BE074C0321206809F0FCFC002861
:10516000F4D00121084602F05BFF636809221A713E
:1051700010BD00BF9810002038B5184D6B68186836
:1051800009F05FFB044620B94FF4AB613220FBF716
:1051900001FF6B6828680A221A71002100F036FFAF
:1051A0002B681A6D237892F88E4004EA531404F0A9
:1051B000010421460520FFF703FF18B9BDE8384078
:1051C000FFF7EABD2868042109F0C5FC0028F5D0E6
:1051D0002B681B6D83F88E4038BD00BF98100020EF
:1051E0002DE9F04F734C95B00546FFF7C5FC2368D9
:1051F00093F8543013F0060F04D0012296210020BA
:1052000009F0DCFF2E7806F00F06284632460AA980
:1052100009F038FB0B9D55B39DF83930012B50D167
:105220006B7903F0C003A3F140056B426B41627BD5
:105230004AB143B1656808F064FA636868715B79E4
:1052400023730123A3736368587908283BD10B9912
:105250009DF8390009F004F962680B99054605329A
:105260009DF83900FEF716FA636800283DD02268E1
:1052700092F8543013F0030106D0062E9DBF92F829
:105280004B102943C9B20021606801F0010113F0FD
:105290000403817106D0062E9DBF92F84C301D4349
:1052A000EBB2002303F00103C3710B9BF3B19DF834
:1052B000391082F87A10196851679B88A2F8783003
:1052C00014E00023B3E708AA0DF11F01FEF7ACFAC2
:1052D00020B940F6A6313220FBF75CFE9DF81F0096
:1052E00008A909F0BDF80546C1E7D880062E00F2EE
:1052F000C680DFE816F06100E4000700C400C400C7
:10530000C400240002F064FD266896F85430980723
:1053100013D06568AB7983B108A8FFF7B9FC9DF994
:1053200020300293237B0193FF230093022206F196
:1053300042030AA9284609F086FA03251DE065689C
:10534000AB79002B00F09B80266896F854209107DB
:1053500019D508A8FFF79CFC9DF920300293237B08
:105360000193FF230093284606F1420306220AA96F
:1053700009F069FA002323740925FFF7FFFC28468A
:1053800015B0BDE8F08FD30779D5570701D502F0E6
:105390001FFD08A8FFF77CFC9DF9202023680292DE
:1053A000227B0192FF2200924233062260680AA902
:1053B000C1E700BF98100020236893F854205607D7
:1053C00038D56168CA79002A34D00B9A93F85A000C
:1053D0001578854256D1557893F85B00854251D1B6
:1053E000957893F85C0085424CD1D57893F85D00B0
:1053F000854247D1157993F85E00854242D15079B4
:1054000093F85F2090423DD19DF8392093F85900E0
:10541000151A6A426A4193F8560001284DD0002AB5
:105420004BD193F84D30082B02D04A799A4244D0A0
:1054300002F0CEFC6568AB79002B3CD0266896F86C
:105440005420900720D508A8FFF722FC9DF92030B2
:105450000293237B0193FF230093284606F1420326
:1054600000220AA909F0EFF90123237409256368D2
:10547000DA79002A81D19B79002B7FF47EAF02F08C
:10548000A7FC5AE70022C6E7D10714D5530701D578
:1054900002F09EFC08A8FFF7FBFB9DF92020236883
:1054A0000292227B0192FF22009260684233002226
:1054B0000AA909F0C8F90325D9E70A25D7E76168E1
:1054C00022688B799DF83A00059392F8483091F85C
:1054D00007B0012883F0010A40F0A8800C984779B2
:1054E00007F0C007A7F1400CDCF1000747EB0C0701
:1054F00092F85400460740F19B8092F84C00002837
:1055000000F0968092F84D50082D00F093802846C8
:10551000FEF7A4F84AEA00005FFA80FA002F00F0D4
:105520008B800C992846FEF7DDF90646216891F834
:10553000542091F8418055074ED50B9A91F85A00A6
:10554000157885427AD1557891F85B00854275D1FE
:10555000957891F85C00854270D1D57891F85D001E
:1055600085426BD1157991F85E00854266D15079FC
:1055700091F85F20904261D19DF8395091F85920FF
:10558000A81A4542454162685279082A58D091F8D4
:105590004D90A9EB0202D2F1000949EB0209002E5D
:1055A00051D1BAF1000F50D00C9B9DF83A204231F6
:1055B000404608F062F8BBF1000F0BD0236893F867
:1055C0005630012B56D02BB9002D53D110B1B9F163
:1055D000000F51D102F0FCFB236893F854309B0775
:1055E0003FF4ABAE02F0F4FB059B002B3FF4A5AEFD
:1055F00020680C9B9DF83A2000F1420190F8410090
:1056000008F03BF8256800B90EB308A8FFF740FB87
:105610009DF920300293237B019348EA46085FFA04
:1056200088F30093012205F14203BFE600275FE7FC
:105630004D7969E7002679E73E4677E70025A2E73E
:105640004FF00009ABE70120B5E73046B3E795F826
:105650005530023B012B3FF670AE002F3FF46DAE8C
:1056600008A8FFF715FB9DF920300293237B0193D7
:10567000FE23D6E70028ADD00A257EE673B53F4C61
:10568000FFF77CFB236800225A721A6D118859813A
:1056900040F2E2409169B1FBF0F11984118C528C17
:1056A0009A844FF47F42DA844FF6FF7259841A8548
:1056B0006069694608F0EFF9236893F8482003F120
:1056C0001405EAB162691278520619D59DF80520D1
:1056D00002F0C002402A13D10098BDF8042058619E
:1056E000AA80207B082803F10E0238D003F10D01B7
:1056F000FEF79AF838B941F2FD313220FBF74AFC47
:1057000000225A61ECE723685A7B42F002025A7386
:105710005A6FC3F81A20B3F87820DA8393F9581037
:10572000186DFEF779F92068154908F046FA2068E7
:105730001449036D1A88A0F8332093F88E3080F84E
:1057400035302A3008F042FA2068022100F05EFC71
:10575000FFF71AFA02B0BDE87040FFF705BA93F8F8
:105760007A105973596FC3F80E10B3F878109180FE
:105770000021C3F81A10D983D0E700BF9810002089
:10578000FFE40000BBE40000036D10B5044623B93C
:105790004FF456713220FBF7FDFB022242721B8848
:1057A0004381FF2380F827304FF6FF7303850349B9
:1057B00008F003FA0023236510BD00BFFFE40000DA
:1057C000F8B5174F0E46786101210020FBF750FF16
:1057D000054620B940F682013220FBF7DBFBF822B8
:1057E000002106F055FA01210846FBF741FF044667
:1057F00018B1F822002106F04BFABB6813B940F645
:105800008C01E9E7304608F02EFF284609F06FF9D1
:1058100024B12046BDE8F84009F069B9F8BD00BFE1
:1058200098100020014B024A9A607047981000209F
:1058300014030020036810B523B940F66D1132201F
:10584000FBF7A8FB044A13606C3353609368BDE810
:1058500010401B68184700BF9810002038B5044658
:1058600090F8400000F0FD00003818BF012084F8D7
:10587000410004F14201FDF789FD94F84030023BFC
:10588000DBB2012B94BF0123002384F8483015D8E4
:10589000FDF7C4FF054604F06BF9094BE5FB030176
:1058A00094F84830C4E9200143B10020FDF7E6FF39
:1058B00020B940F615213220FBF76CFB38BD00BF44
:1058C00040420F000149363008F07AB9DDE40000AB
:1058D00008B507F005F8054AD2E84F3F0133DBB2BF
:1058E000C2E8413F0029F7D108BD00BFB010002039
:1058F0002DE9F84F1E46474B04689DF828709DF827
:105900002C809DF930909DF834A093461A780D466E
:105910000021016032B95868A4F10801BDE8F84FD0
:10592000FFF7D6BF1A2204F1090006F0B1F90123EE
:10593000A372BBF1060F3CD8DFE80BF00420263B36
:10594000303B2A00E37A23F0130343F01303E3729E
:1059500001232375FF23A375B8F1080F4FF07F03D0
:1059600084F81890E37504F10E0246D004F10D019D
:105970004046FDF759FF08BBC1211CE0E37A23F044
:10598000150343F01503E2E7E37A43F01003DEE783
:10599000E37A23F0120343F01203D8E7E27A4AF0E5
:1059A0001A0A22F01B020AF01B0A42EA0A02E272F9
:1059B000CEE740F22B413320FBF7ECFA637B43F058
:1059C00002036373E37A5B0720D5BA1E012A8BBFFB
:1059D000AA6832681168E26188BFE16104F11C03C2
:1059E00094BFB28892889A80E776002323720A498E
:1059F0002046BDE8F84F08F0E3B86B7C63736B6832
:105A00001968C4F80E109B889380DBE7FF23E376C8
:105A1000EBE700BFB01000201D5A00002DE9F04355
:105A200005468DB00C4600200121FBF75DFE0646C1
:105A300020B940F2C7113320FBF7ACFA903009F0DF
:105A400058F84D4FA5F1080818B196F85430042BBA
:105A500017D1304608F0FCFD98B978684146FFF749
:105A600037FF4FF40073ADF804309DF80430002088
:105A700063F307009DF8053063F30F200DB0BDE818
:105A8000F08302A905F1230008F02DFFEE7A16F04D
:105A9000100604F10D0307D09DF81860059918460B
:105AA000324606F035F90346E97AC80601D45B218F
:105AB000C1E711F0040FAA7A95F80DE004F1060091
:105AC00005F10E0C29D095F81B90B9F1FE0F24D1E9
:105AD000112121701101E2700231012261702271E5
